{
	"SimpleStorage.sol": {
		"SimpleStorage": {
			"abi": [
				{
					"anonymous": false,
					"inputs": [
						{
							"indexed": false,
							"internalType": "enum SimpleStorage.ContractState",
							"name": "newState",
							"type": "uint8"
						}
					],
					"name": "ContractStateChanged",
					"type": "event"
				},
				{
					"anonymous": false,
					"inputs": [
						{
							"indexed": false,
							"internalType": "uint256",
							"name": "number",
							"type": "uint256"
						}
					],
					"name": "FavoriteNumberAdded",
					"type": "event"
				},
				{
					"anonymous": false,
					"inputs": [
						{
							"indexed": false,
							"internalType": "uint256",
							"name": "number",
							"type": "uint256"
						}
					],
					"name": "NumberStored",
					"type": "event"
				},
				{
					"anonymous": false,
					"inputs": [
						{
							"indexed": false,
							"internalType": "string",
							"name": "name",
							"type": "string"
						},
						{
							"indexed": false,
							"internalType": "uint256",
							"name": "favoriteNumber",
							"type": "uint256"
						}
					],
					"name": "PersonAdded",
					"type": "event"
				},
				{
					"inputs": [],
					"name": "activateContract",
					"outputs": [],
					"stateMutability": "nonpayable",
					"type": "function"
				},
				{
					"inputs": [
						{
							"internalType": "uint256",
							"name": "_number",
							"type": "uint256"
						}
					],
					"name": "addFavoriteNumber",
					"outputs": [],
					"stateMutability": "nonpayable",
					"type": "function"
				},
				{
					"inputs": [
						{
							"internalType": "string",
							"name": "_name",
							"type": "string"
						},
						{
							"internalType": "uint256",
							"name": "_favoriteNumber",
							"type": "uint256"
						}
					],
					"name": "addPerson",
					"outputs": [],
					"stateMutability": "nonpayable",
					"type": "function"
				},
				{
					"inputs": [],
					"name": "callInternalFunction",
					"outputs": [
						{
							"internalType": "string",
							"name": "",
							"type": "string"
						}
					],
					"stateMutability": "pure",
					"type": "function"
				},
				{
					"inputs": [],
					"name": "deactivateContract",
					"outputs": [],
					"stateMutability": "nonpayable",
					"type": "function"
				},
				{
					"inputs": [],
					"name": "externalFunction",
					"outputs": [
						{
							"internalType": "string",
							"name": "",
							"type": "string"
						}
					],
					"stateMutability": "pure",
					"type": "function"
				},
				{
					"inputs": [
						{
							"internalType": "uint256",
							"name": "",
							"type": "uint256"
						}
					],
					"name": "favoriteNumbers",
					"outputs": [
						{
							"internalType": "uint256",
							"name": "",
							"type": "uint256"
						}
					],
					"stateMutability": "view",
					"type": "function"
				},
				{
					"inputs": [],
					"name": "getFavoriteNumber",
					"outputs": [
						{
							"internalType": "uint256",
							"name": "",
							"type": "uint256"
						}
					],
					"stateMutability": "view",
					"type": "function"
				},
				{
					"inputs": [],
					"name": "getFavoriteNumbersLength",
					"outputs": [
						{
							"internalType": "uint256",
							"name": "",
							"type": "uint256"
						}
					],
					"stateMutability": "view",
					"type": "function"
				},
				{
					"inputs": [],
					"name": "getPeopleLength",
					"outputs": [
						{
							"internalType": "uint256",
							"name": "",
							"type": "uint256"
						}
					],
					"stateMutability": "view",
					"type": "function"
				},
				{
					"inputs": [],
					"name": "isActive",
					"outputs": [
						{
							"internalType": "bool",
							"name": "",
							"type": "bool"
						}
					],
					"stateMutability": "view",
					"type": "function"
				},
				{
					"inputs": [
						{
							"internalType": "uint256",
							"name": "_number",
							"type": "uint256"
						}
					],
					"name": "isGreaterThan",
					"outputs": [
						{
							"internalType": "bool",
							"name": "",
							"type": "bool"
						}
					],
					"stateMutability": "view",
					"type": "function"
				},
				{
					"inputs": [
						{
							"internalType": "uint256",
							"name": "",
							"type": "uint256"
						}
					],
					"name": "people",
					"outputs": [
						{
							"internalType": "string",
							"name": "name",
							"type": "string"
						},
						{
							"internalType": "uint256",
							"name": "favoriteNumber",
							"type": "uint256"
						}
					],
					"stateMutability": "view",
					"type": "function"
				},
				{
					"inputs": [],
					"name": "state",
					"outputs": [
						{
							"internalType": "enum SimpleStorage.ContractState",
							"name": "",
							"type": "uint8"
						}
					],
					"stateMutability": "view",
					"type": "function"
				},
				{
					"inputs": [
						{
							"internalType": "uint256",
							"name": "_number",
							"type": "uint256"
						}
					],
					"name": "storeNumber",
					"outputs": [],
					"stateMutability": "nonpayable",
					"type": "function"
				},
				{
					"inputs": [],
					"name": "sumToFavoriteNumber",
					"outputs": [
						{
							"internalType": "uint256",
							"name": "",
							"type": "uint256"
						}
					],
					"stateMutability": "view",
					"type": "function"
				},
				{
					"inputs": [],
					"name": "testExternalFunction",
					"outputs": [
						{
							"internalType": "string",
							"name": "",
							"type": "string"
						}
					],
					"stateMutability": "view",
					"type": "function"
				}
			],
			"devdoc": {
				"kind": "dev",
				"methods": {},
				"version": 1
			},
			"evm": {
				"assembly": "    /* \"SimpleStorage.sol\":61:2742  contract SimpleStorage {... */\n  mstore(0x40, 0x80)\n  callvalue\n  dup1\n  iszero\n  tag_1\n  jumpi\n  0x00\n  dup1\n  revert\ntag_1:\n  pop\n  dataSize(sub_0)\n  dup1\n  dataOffset(sub_0)\n  0x00\n  codecopy\n  0x00\n  return\nstop\n\nsub_0: assembly {\n        /* \"SimpleStorage.sol\":61:2742  contract SimpleStorage {... */\n      mstore(0x40, 0x80)\n      callvalue\n      dup1\n      iszero\n      tag_1\n      jumpi\n      0x00\n      dup1\n      revert\n    tag_1:\n      pop\n      jumpi(tag_2, lt(calldatasize, 0x04))\n      shr(0xe0, calldataload(0x00))\n      dup1\n      0x8fda356d\n      gt\n      tag_20\n      jumpi\n      dup1\n      0xb6339418\n      gt\n      tag_21\n      jumpi\n      dup1\n      0xb6339418\n      eq\n      tag_15\n      jumpi\n      dup1\n      0xbca353be\n      eq\n      tag_16\n      jumpi\n      dup1\n      0xc19d93fb\n      eq\n      tag_17\n      jumpi\n      dup1\n      0xcb6a33f8\n      eq\n      tag_18\n      jumpi\n      dup1\n      0xe0819c9a\n      eq\n      tag_19\n      jumpi\n      jump(tag_2)\n    tag_21:\n      dup1\n      0x8fda356d\n      eq\n      tag_11\n      jumpi\n      dup1\n      0x9e7a13ad\n      eq\n      tag_12\n      jumpi\n      dup1\n      0xa621d15e\n      eq\n      tag_13\n      jumpi\n      dup1\n      0xa7e1a364\n      eq\n      tag_14\n      jumpi\n      jump(tag_2)\n    tag_20:\n      dup1\n      0x3a32b549\n      gt\n      tag_22\n      jumpi\n      dup1\n      0x3a32b549\n      eq\n      tag_7\n      jumpi\n      dup1\n      0x6f760f41\n      eq\n      tag_8\n      jumpi\n      dup1\n      0x7b2f685d\n      eq\n      tag_9\n      jumpi\n      dup1\n      0x8701f8ca\n      eq\n      tag_10\n      jumpi\n      jump(tag_2)\n    tag_22:\n      dup1\n      0x0c8c38c9\n      eq\n      tag_3\n      jumpi\n      dup1\n      0x0cd2636e\n      eq\n      tag_4\n      jumpi\n      dup1\n      0x22f3e2d4\n      eq\n      tag_5\n      jumpi\n      dup1\n      0x29cd1d96\n      eq\n      tag_6\n      jumpi\n    tag_2:\n      0x00\n      dup1\n      revert\n        /* \"SimpleStorage.sol\":2245:2341  function getPeopleLength() public view returns (uint256) {... */\n    tag_3:\n      tag_23\n      tag_24\n      jump\t// in\n    tag_23:\n      mload(0x40)\n      tag_25\n      swap2\n      swap1\n      tag_26\n      jump\t// in\n    tag_25:\n      mload(0x40)\n      dup1\n      swap2\n      sub\n      swap1\n      return\n        /* \"SimpleStorage.sol\":1028:1234  function sumToFavoriteNumber() public view returns (uint256) {... */\n    tag_4:\n      tag_27\n      tag_28\n      jump\t// in\n    tag_27:\n      mload(0x40)\n      tag_29\n      swap2\n      swap1\n      tag_26\n      jump\t// in\n    tag_29:\n      mload(0x40)\n      dup1\n      swap2\n      sub\n      swap1\n      return\n        /* \"SimpleStorage.sol\":2637:2739  function isActive() public view returns (bool) {... */\n    tag_5:\n      tag_30\n      tag_31\n      jump\t// in\n    tag_30:\n      mload(0x40)\n      tag_32\n      swap2\n      swap1\n      tag_33\n      jump\t// in\n    tag_32:\n      mload(0x40)\n      dup1\n      swap2\n      sub\n      swap1\n      return\n        /* \"SimpleStorage.sol\":134:166  uint256[] public favoriteNumbers */\n    tag_6:\n      tag_34\n      0x04\n      dup1\n      calldatasize\n      sub\n      dup2\n      add\n      swap1\n      tag_35\n      swap2\n      swap1\n      tag_36\n      jump\t// in\n    tag_35:\n      tag_37\n      jump\t// in\n    tag_34:\n      mload(0x40)\n      tag_38\n      swap2\n      swap1\n      tag_26\n      jump\t// in\n    tag_38:\n      mload(0x40)\n      dup1\n      swap2\n      sub\n      swap1\n      return\n        /* \"SimpleStorage.sol\":1504:1626  function externalFunction() external pure returns (string memory) {... */\n    tag_7:\n      tag_39\n      tag_40\n      jump\t// in\n    tag_39:\n      mload(0x40)\n      tag_41\n      swap2\n      swap1\n      tag_42\n      jump\t// in\n    tag_41:\n      mload(0x40)\n      dup1\n      swap2\n      sub\n      swap1\n      return\n        /* \"SimpleStorage.sol\":2048:2233  function addPerson(string memory _name, uint256 _favoriteNumber) public {... */\n    tag_8:\n      tag_43\n      0x04\n      dup1\n      calldatasize\n      sub\n      dup2\n      add\n      swap1\n      tag_44\n      swap2\n      swap1\n      tag_45\n      jump\t// in\n    tag_44:\n      tag_46\n      jump\t// in\n    tag_43:\n      stop\n        /* \"SimpleStorage.sol\":1922:2036  function getFavoriteNumbersLength() public view returns (uint256) {... */\n    tag_9:\n      tag_47\n      tag_48\n      jump\t// in\n    tag_47:\n      mload(0x40)\n      tag_49\n      swap2\n      swap1\n      tag_26\n      jump\t// in\n    tag_49:\n      mload(0x40)\n      dup1\n      swap2\n      sub\n      swap1\n      return\n        /* \"SimpleStorage.sol\":1380:1492  function callInternalFunction() public pure returns (string memory) {... */\n    tag_10:\n      tag_50\n      tag_51\n      jump\t// in\n    tag_50:\n      mload(0x40)\n      tag_52\n      swap2\n      swap1\n      tag_42\n      jump\t// in\n    tag_52:\n      mload(0x40)\n      dup1\n      swap2\n      sub\n      swap1\n      return\n        /* \"SimpleStorage.sol\":2359:2484  function activateContract() public {... */\n    tag_11:\n      tag_53\n      tag_54\n      jump\t// in\n    tag_53:\n      stop\n        /* \"SimpleStorage.sol\":268:290  Person[] public people */\n    tag_12:\n      tag_55\n      0x04\n      dup1\n      calldatasize\n      sub\n      dup2\n      add\n      swap1\n      tag_56\n      swap2\n      swap1\n      tag_36\n      jump\t// in\n    tag_56:\n      tag_57\n      jump\t// in\n    tag_55:\n      mload(0x40)\n      tag_58\n      swap3\n      swap2\n      swap1\n      tag_59\n      jump\t// in\n    tag_58:\n      mload(0x40)\n      dup1\n      swap2\n      sub\n      swap1\n      return\n        /* \"SimpleStorage.sol\":766:865  function getFavoriteNumber() public view returns (uint256) {... */\n    tag_13:\n      tag_60\n      tag_61\n      jump\t// in\n    tag_60:\n      mload(0x40)\n      tag_62\n      swap2\n      swap1\n      tag_26\n      jump\t// in\n    tag_62:\n      mload(0x40)\n      dup1\n      swap2\n      sub\n      swap1\n      return\n        /* \"SimpleStorage.sol\":1767:1910  function addFavoriteNumber(uint256 _number) public {... */\n    tag_14:\n      tag_63\n      0x04\n      dup1\n      calldatasize\n      sub\n      dup2\n      add\n      swap1\n      tag_64\n      swap2\n      swap1\n      tag_36\n      jump\t// in\n    tag_64:\n      tag_65\n      jump\t// in\n    tag_63:\n      stop\n        /* \"SimpleStorage.sol\":629:754  function storeNumber(uint256 _number) public {... */\n    tag_15:\n      tag_66\n      0x04\n      dup1\n      calldatasize\n      sub\n      dup2\n      add\n      swap1\n      tag_67\n      swap2\n      swap1\n      tag_36\n      jump\t// in\n    tag_67:\n      tag_68\n      jump\t// in\n    tag_66:\n      stop\n        /* \"SimpleStorage.sol\":2496:2625  function deactivateContract() public {... */\n    tag_16:\n      tag_69\n      tag_70\n      jump\t// in\n    tag_69:\n      stop\n        /* \"SimpleStorage.sol\":377:403  ContractState public state */\n    tag_17:\n      tag_71\n      tag_72\n      jump\t// in\n    tag_71:\n      mload(0x40)\n      tag_73\n      swap2\n      swap1\n      tag_74\n      jump\t// in\n    tag_73:\n      mload(0x40)\n      dup1\n      swap2\n      sub\n      swap1\n      return\n        /* \"SimpleStorage.sol\":877:994  function isGreaterThan(uint256 _number) public view returns (bool) {... */\n    tag_18:\n      tag_75\n      0x04\n      dup1\n      calldatasize\n      sub\n      dup2\n      add\n      swap1\n      tag_76\n      swap2\n      swap1\n      tag_36\n      jump\t// in\n    tag_76:\n      tag_77\n      jump\t// in\n    tag_75:\n      mload(0x40)\n      tag_78\n      swap2\n      swap1\n      tag_33\n      jump\t// in\n    tag_78:\n      mload(0x40)\n      dup1\n      swap2\n      sub\n      swap1\n      return\n        /* \"SimpleStorage.sol\":1638:1755  function testExternalFunction() view public returns (string memory) {... */\n    tag_19:\n      tag_79\n      tag_80\n      jump\t// in\n    tag_79:\n      mload(0x40)\n      tag_81\n      swap2\n      swap1\n      tag_42\n      jump\t// in\n    tag_81:\n      mload(0x40)\n      dup1\n      swap2\n      sub\n      swap1\n      return\n        /* \"SimpleStorage.sol\":2245:2341  function getPeopleLength() public view returns (uint256) {... */\n    tag_24:\n        /* \"SimpleStorage.sol\":2293:2300  uint256 */\n      0x00\n        /* \"SimpleStorage.sol\":2320:2326  people */\n      0x02\n        /* \"SimpleStorage.sol\":2320:2333  people.length */\n      dup1\n      sload\n      swap1\n      pop\n        /* \"SimpleStorage.sol\":2313:2333  return people.length */\n      swap1\n      pop\n        /* \"SimpleStorage.sol\":2245:2341  function getPeopleLength() public view returns (uint256) {... */\n      swap1\n      jump\t// out\n        /* \"SimpleStorage.sol\":1028:1234  function sumToFavoriteNumber() public view returns (uint256) {... */\n    tag_28:\n        /* \"SimpleStorage.sol\":1080:1087  uint256 */\n      0x00\n        /* \"SimpleStorage.sol\":1100:1111  uint256 sum */\n      dup1\n        /* \"SimpleStorage.sol\":1114:1115  0 */\n      0x00\n        /* \"SimpleStorage.sol\":1100:1115  uint256 sum = 0 */\n      swap1\n      pop\n        /* \"SimpleStorage.sol\":1130:1139  uint256 i */\n      0x00\n        /* \"SimpleStorage.sol\":1142:1143  1 */\n      0x01\n        /* \"SimpleStorage.sol\":1130:1143  uint256 i = 1 */\n      swap1\n      pop\n        /* \"SimpleStorage.sol\":1126:1206  for(uint256 i = 1; i <= favoriteNumber; i++) {... */\n    tag_84:\n        /* \"SimpleStorage.sol\":1150:1164  favoriteNumber */\n      sload(0x00)\n        /* \"SimpleStorage.sol\":1145:1146  i */\n      dup2\n        /* \"SimpleStorage.sol\":1145:1164  i <= favoriteNumber */\n      gt\n        /* \"SimpleStorage.sol\":1126:1206  for(uint256 i = 1; i <= favoriteNumber; i++) {... */\n      tag_85\n      jumpi\n        /* \"SimpleStorage.sol\":1193:1194  i */\n      dup1\n        /* \"SimpleStorage.sol\":1186:1194  sum += i */\n      dup3\n      tag_87\n      swap2\n      swap1\n      tag_88\n      jump\t// in\n    tag_87:\n      swap2\n      pop\n        /* \"SimpleStorage.sol\":1166:1169  i++ */\n      dup1\n      dup1\n      tag_89\n      swap1\n      tag_90\n      jump\t// in\n    tag_89:\n      swap2\n      pop\n      pop\n        /* \"SimpleStorage.sol\":1126:1206  for(uint256 i = 1; i <= favoriteNumber; i++) {... */\n      jump(tag_84)\n    tag_85:\n      pop\n        /* \"SimpleStorage.sol\":1223:1226  sum */\n      dup1\n        /* \"SimpleStorage.sol\":1216:1226  return sum */\n      swap2\n      pop\n      pop\n        /* \"SimpleStorage.sol\":1028:1234  function sumToFavoriteNumber() public view returns (uint256) {... */\n      swap1\n      jump\t// out\n        /* \"SimpleStorage.sol\":2637:2739  function isActive() public view returns (bool) {... */\n    tag_31:\n        /* \"SimpleStorage.sol\":2678:2682  bool */\n      0x00\n        /* \"SimpleStorage.sol\":2711:2731  ContractState.Active */\n      dup1\n        /* \"SimpleStorage.sol\":2702:2731  state == ContractState.Active */\n      0x01\n      dup2\n      gt\n      iszero\n      tag_92\n      jumpi\n      tag_93\n      tag_94\n      jump\t// in\n    tag_93:\n    tag_92:\n        /* \"SimpleStorage.sol\":2702:2707  state */\n      0x03\n      0x00\n      swap1\n      sload\n      swap1\n      0x0100\n      exp\n      swap1\n      div\n      0xff\n      and\n        /* \"SimpleStorage.sol\":2702:2731  state == ContractState.Active */\n      0x01\n      dup2\n      gt\n      iszero\n      tag_95\n      jumpi\n      tag_96\n      tag_94\n      jump\t// in\n    tag_96:\n    tag_95:\n      eq\n        /* \"SimpleStorage.sol\":2695:2731  return state == ContractState.Active */\n      swap1\n      pop\n        /* \"SimpleStorage.sol\":2637:2739  function isActive() public view returns (bool) {... */\n      swap1\n      jump\t// out\n        /* \"SimpleStorage.sol\":134:166  uint256[] public favoriteNumbers */\n    tag_37:\n      0x01\n      dup2\n      dup2\n      sload\n      dup2\n      lt\n      tag_97\n      jumpi\n      0x00\n      dup1\n      revert\n    tag_97:\n      swap1\n      0x00\n      mstore\n      keccak256(0x00, 0x20)\n      add\n      0x00\n      swap2\n      pop\n      swap1\n      pop\n      sload\n      dup2\n      jump\t// out\n        /* \"SimpleStorage.sol\":1504:1626  function externalFunction() external pure returns (string memory) {... */\n    tag_40:\n        /* \"SimpleStorage.sol\":1555:1568  string memory */\n      0x60\n        /* \"SimpleStorage.sol\":1581:1618  return \"This is an external function\" */\n      mload(0x40)\n      dup1\n      0x40\n      add\n      0x40\n      mstore\n      dup1\n      0x1c\n      dup2\n      mstore\n      0x20\n      add\n      0x5468697320697320616e2065787465726e616c2066756e6374696f6e00000000\n      dup2\n      mstore\n      pop\n      swap1\n      pop\n        /* \"SimpleStorage.sol\":1504:1626  function externalFunction() external pure returns (string memory) {... */\n      swap1\n      jump\t// out\n        /* \"SimpleStorage.sol\":2048:2233  function addPerson(string memory _name, uint256 _favoriteNumber) public {... */\n    tag_46:\n        /* \"SimpleStorage.sol\":2131:2137  people */\n      0x02\n        /* \"SimpleStorage.sol\":2143:2173  Person(_name, _favoriteNumber) */\n      mload(0x40)\n      dup1\n      0x40\n      add\n      0x40\n      mstore\n      dup1\n        /* \"SimpleStorage.sol\":2150:2155  _name */\n      dup5\n        /* \"SimpleStorage.sol\":2143:2173  Person(_name, _favoriteNumber) */\n      dup2\n      mstore\n      0x20\n      add\n        /* \"SimpleStorage.sol\":2157:2172  _favoriteNumber */\n      dup4\n        /* \"SimpleStorage.sol\":2143:2173  Person(_name, _favoriteNumber) */\n      dup2\n      mstore\n      pop\n        /* \"SimpleStorage.sol\":2131:2174  people.push(Person(_name, _favoriteNumber)) */\n      swap1\n      dup1\n      0x01\n      dup2\n      sload\n      add\n      dup1\n      dup3\n      sstore\n      dup1\n      swap2\n      pop\n      pop\n      0x01\n      swap1\n      sub\n      swap1\n      0x00\n      mstore\n      keccak256(0x00, 0x20)\n      swap1\n      0x02\n      mul\n      add\n      0x00\n      swap1\n      swap2\n      swap1\n      swap2\n      swap1\n      swap2\n      pop\n      0x00\n      dup3\n      add\n      mload\n      dup2\n      0x00\n      add\n      swap1\n      dup2\n      tag_102\n      swap2\n      swap1\n      tag_103\n      jump\t// in\n    tag_102:\n      pop\n      0x20\n      dup3\n      add\n      mload\n      dup2\n      0x01\n      add\n      sstore\n      pop\n      pop\n        /* \"SimpleStorage.sol\":2190:2225  PersonAdded(_name, _favoriteNumber) */\n      0x038689efcc6afee3cd9a9149881ac988a4baf9420f51737c9d3d832fe2d5b539\n        /* \"SimpleStorage.sol\":2202:2207  _name */\n      dup3\n        /* \"SimpleStorage.sol\":2209:2224  _favoriteNumber */\n      dup3\n        /* \"SimpleStorage.sol\":2190:2225  PersonAdded(_name, _favoriteNumber) */\n      mload(0x40)\n      tag_104\n      swap3\n      swap2\n      swap1\n      tag_59\n      jump\t// in\n    tag_104:\n      mload(0x40)\n      dup1\n      swap2\n      sub\n      swap1\n      log1\n        /* \"SimpleStorage.sol\":2048:2233  function addPerson(string memory _name, uint256 _favoriteNumber) public {... */\n      pop\n      pop\n      jump\t// out\n        /* \"SimpleStorage.sol\":1922:2036  function getFavoriteNumbersLength() public view returns (uint256) {... */\n    tag_48:\n        /* \"SimpleStorage.sol\":1979:1986  uint256 */\n      0x00\n        /* \"SimpleStorage.sol\":2006:2021  favoriteNumbers */\n      0x01\n        /* \"SimpleStorage.sol\":2006:2028  favoriteNumbers.length */\n      dup1\n      sload\n      swap1\n      pop\n        /* \"SimpleStorage.sol\":1999:2028  return favoriteNumbers.length */\n      swap1\n      pop\n        /* \"SimpleStorage.sol\":1922:2036  function getFavoriteNumbersLength() public view returns (uint256) {... */\n      swap1\n      jump\t// out\n        /* \"SimpleStorage.sol\":1380:1492  function callInternalFunction() public pure returns (string memory) {... */\n    tag_51:\n        /* \"SimpleStorage.sol\":1433:1446  string memory */\n      0x60\n        /* \"SimpleStorage.sol\":1466:1484  internalFunction() */\n      tag_107\n        /* \"SimpleStorage.sol\":1466:1482  internalFunction */\n      tag_108\n        /* \"SimpleStorage.sol\":1466:1484  internalFunction() */\n      jump\t// in\n    tag_107:\n        /* \"SimpleStorage.sol\":1459:1484  return internalFunction() */\n      swap1\n      pop\n        /* \"SimpleStorage.sol\":1380:1492  function callInternalFunction() public pure returns (string memory) {... */\n      swap1\n      jump\t// out\n        /* \"SimpleStorage.sol\":2359:2484  function activateContract() public {... */\n    tag_54:\n        /* \"SimpleStorage.sol\":2413:2433  ContractState.Active */\n      0x00\n        /* \"SimpleStorage.sol\":2405:2410  state */\n      0x03\n      0x00\n        /* \"SimpleStorage.sol\":2405:2433  state = ContractState.Active */\n      0x0100\n      exp\n      dup2\n      sload\n      dup2\n      0xff\n      mul\n      not\n      and\n      swap1\n      dup4\n      0x01\n      dup2\n      gt\n      iszero\n      tag_110\n      jumpi\n      tag_111\n      tag_94\n      jump\t// in\n    tag_111:\n    tag_110:\n      mul\n      or\n      swap1\n      sstore\n      pop\n        /* \"SimpleStorage.sol\":2449:2476  ContractStateChanged(state) */\n      0xab540c1b3defd38d975e65aa0e06eeee132a55dd082be87b73f505ab57bed48c\n        /* \"SimpleStorage.sol\":2470:2475  state */\n      0x03\n      0x00\n      swap1\n      sload\n      swap1\n      0x0100\n      exp\n      swap1\n      div\n      0xff\n      and\n        /* \"SimpleStorage.sol\":2449:2476  ContractStateChanged(state) */\n      mload(0x40)\n      tag_112\n      swap2\n      swap1\n      tag_74\n      jump\t// in\n    tag_112:\n      mload(0x40)\n      dup1\n      swap2\n      sub\n      swap1\n      log1\n        /* \"SimpleStorage.sol\":2359:2484  function activateContract() public {... */\n      jump\t// out\n        /* \"SimpleStorage.sol\":268:290  Person[] public people */\n    tag_57:\n      0x02\n      dup2\n      dup2\n      sload\n      dup2\n      lt\n      tag_113\n      jumpi\n      0x00\n      dup1\n      revert\n    tag_113:\n      swap1\n      0x00\n      mstore\n      keccak256(0x00, 0x20)\n      swap1\n      0x02\n      mul\n      add\n      0x00\n      swap2\n      pop\n      swap1\n      pop\n      dup1\n      0x00\n      add\n      dup1\n      sload\n      tag_115\n      swap1\n      tag_116\n      jump\t// in\n    tag_115:\n      dup1\n      0x1f\n      add\n      0x20\n      dup1\n      swap2\n      div\n      mul\n      0x20\n      add\n      mload(0x40)\n      swap1\n      dup2\n      add\n      0x40\n      mstore\n      dup1\n      swap3\n      swap2\n      swap1\n      dup2\n      dup2\n      mstore\n      0x20\n      add\n      dup3\n      dup1\n      sload\n      tag_117\n      swap1\n      tag_116\n      jump\t// in\n    tag_117:\n      dup1\n      iszero\n      tag_118\n      jumpi\n      dup1\n      0x1f\n      lt\n      tag_119\n      jumpi\n      0x0100\n      dup1\n      dup4\n      sload\n      div\n      mul\n      dup4\n      mstore\n      swap2\n      0x20\n      add\n      swap2\n      jump(tag_118)\n    tag_119:\n      dup3\n      add\n      swap2\n      swap1\n      0x00\n      mstore\n      keccak256(0x00, 0x20)\n      swap1\n    tag_120:\n      dup2\n      sload\n      dup2\n      mstore\n      swap1\n      0x01\n      add\n      swap1\n      0x20\n      add\n      dup1\n      dup4\n      gt\n      tag_120\n      jumpi\n      dup3\n      swap1\n      sub\n      0x1f\n      and\n      dup3\n      add\n      swap2\n    tag_118:\n      pop\n      pop\n      pop\n      pop\n      pop\n      swap1\n      dup1\n      0x01\n      add\n      sload\n      swap1\n      pop\n      dup3\n      jump\t// out\n        /* \"SimpleStorage.sol\":766:865  function getFavoriteNumber() public view returns (uint256) {... */\n    tag_61:\n        /* \"SimpleStorage.sol\":816:823  uint256 */\n      0x00\n        /* \"SimpleStorage.sol\":843:857  favoriteNumber */\n      dup1\n      sload\n        /* \"SimpleStorage.sol\":836:857  return favoriteNumber */\n      swap1\n      pop\n        /* \"SimpleStorage.sol\":766:865  function getFavoriteNumber() public view returns (uint256) {... */\n      swap1\n      jump\t// out\n        /* \"SimpleStorage.sol\":1767:1910  function addFavoriteNumber(uint256 _number) public {... */\n    tag_65:\n        /* \"SimpleStorage.sol\":1829:1844  favoriteNumbers */\n      0x01\n        /* \"SimpleStorage.sol\":1850:1857  _number */\n      dup2\n        /* \"SimpleStorage.sol\":1829:1858  favoriteNumbers.push(_number) */\n      swap1\n      dup1\n      0x01\n      dup2\n      sload\n      add\n      dup1\n      dup3\n      sstore\n      dup1\n      swap2\n      pop\n      pop\n      0x01\n      swap1\n      sub\n      swap1\n      0x00\n      mstore\n      keccak256(0x00, 0x20)\n      add\n      0x00\n      swap1\n      swap2\n      swap1\n      swap2\n      swap1\n      swap2\n      pop\n      sstore\n        /* \"SimpleStorage.sol\":1874:1902  FavoriteNumberAdded(_number) */\n      0x863998ab206170ca379aa4dc8a1b8eaf9944abe3f6f7d4571b42db890169a7f3\n        /* \"SimpleStorage.sol\":1894:1901  _number */\n      dup2\n        /* \"SimpleStorage.sol\":1874:1902  FavoriteNumberAdded(_number) */\n      mload(0x40)\n      tag_124\n      swap2\n      swap1\n      tag_26\n      jump\t// in\n    tag_124:\n      mload(0x40)\n      dup1\n      swap2\n      sub\n      swap1\n      log1\n        /* \"SimpleStorage.sol\":1767:1910  function addFavoriteNumber(uint256 _number) public {... */\n      pop\n      jump\t// out\n        /* \"SimpleStorage.sol\":629:754  function storeNumber(uint256 _number) public {... */\n    tag_68:\n        /* \"SimpleStorage.sol\":702:709  _number */\n      dup1\n        /* \"SimpleStorage.sol\":685:699  favoriteNumber */\n      0x00\n        /* \"SimpleStorage.sol\":685:709  favoriteNumber = _number */\n      dup2\n      swap1\n      sstore\n      pop\n        /* \"SimpleStorage.sol\":725:746  NumberStored(_number) */\n      0x3564ffb2fd8f93d7b0e9d1173ffdff5ee9775d860bfe82eaca0d0dbe07c8b634\n        /* \"SimpleStorage.sol\":738:745  _number */\n      dup2\n        /* \"SimpleStorage.sol\":725:746  NumberStored(_number) */\n      mload(0x40)\n      tag_126\n      swap2\n      swap1\n      tag_26\n      jump\t// in\n    tag_126:\n      mload(0x40)\n      dup1\n      swap2\n      sub\n      swap1\n      log1\n        /* \"SimpleStorage.sol\":629:754  function storeNumber(uint256 _number) public {... */\n      pop\n      jump\t// out\n        /* \"SimpleStorage.sol\":2496:2625  function deactivateContract() public {... */\n    tag_70:\n        /* \"SimpleStorage.sol\":2552:2574  ContractState.Inactive */\n      0x01\n        /* \"SimpleStorage.sol\":2544:2549  state */\n      0x03\n      0x00\n        /* \"SimpleStorage.sol\":2544:2574  state = ContractState.Inactive */\n      0x0100\n      exp\n      dup2\n      sload\n      dup2\n      0xff\n      mul\n      not\n      and\n      swap1\n      dup4\n      0x01\n      dup2\n      gt\n      iszero\n      tag_128\n      jumpi\n      tag_129\n      tag_94\n      jump\t// in\n    tag_129:\n    tag_128:\n      mul\n      or\n      swap1\n      sstore\n      pop\n        /* \"SimpleStorage.sol\":2590:2617  ContractStateChanged(state) */\n      0xab540c1b3defd38d975e65aa0e06eeee132a55dd082be87b73f505ab57bed48c\n        /* \"SimpleStorage.sol\":2611:2616  state */\n      0x03\n      0x00\n      swap1\n      sload\n      swap1\n      0x0100\n      exp\n      swap1\n      div\n      0xff\n      and\n        /* \"SimpleStorage.sol\":2590:2617  ContractStateChanged(state) */\n      mload(0x40)\n      tag_130\n      swap2\n      swap1\n      tag_74\n      jump\t// in\n    tag_130:\n      mload(0x40)\n      dup1\n      swap2\n      sub\n      swap1\n      log1\n        /* \"SimpleStorage.sol\":2496:2625  function deactivateContract() public {... */\n      jump\t// out\n        /* \"SimpleStorage.sol\":377:403  ContractState public state */\n    tag_72:\n      0x03\n      0x00\n      swap1\n      sload\n      swap1\n      0x0100\n      exp\n      swap1\n      div\n      0xff\n      and\n      dup2\n      jump\t// out\n        /* \"SimpleStorage.sol\":877:994  function isGreaterThan(uint256 _number) public view returns (bool) {... */\n    tag_77:\n        /* \"SimpleStorage.sol\":938:942  bool */\n      0x00\n        /* \"SimpleStorage.sol\":979:986  _number */\n      dup2\n        /* \"SimpleStorage.sol\":962:976  favoriteNumber */\n      sload(0x00)\n        /* \"SimpleStorage.sol\":962:986  favoriteNumber > _number */\n      gt\n        /* \"SimpleStorage.sol\":955:986  return favoriteNumber > _number */\n      swap1\n      pop\n        /* \"SimpleStorage.sol\":877:994  function isGreaterThan(uint256 _number) public view returns (bool) {... */\n      swap2\n      swap1\n      pop\n      jump\t// out\n        /* \"SimpleStorage.sol\":1638:1755  function testExternalFunction() view public returns (string memory) {... */\n    tag_80:\n        /* \"SimpleStorage.sol\":1691:1704  string memory */\n      0x60\n        /* \"SimpleStorage.sol\":1724:1728  this */\n      address\n        /* \"SimpleStorage.sol\":1724:1745  this.externalFunction */\n      0xffffffffffffffffffffffffffffffffffffffff\n      and\n      0x3a32b549\n        /* \"SimpleStorage.sol\":1724:1747  this.externalFunction() */\n      mload(0x40)\n      dup2\n      0xffffffff\n      and\n      0xe0\n      shl\n      dup2\n      mstore\n      0x04\n      add\n      0x00\n      mload(0x40)\n      dup1\n      dup4\n      sub\n      dup2\n      dup7\n      gas\n      staticcall\n      iszero\n      dup1\n      iszero\n      tag_134\n      jumpi\n      returndatasize\n      0x00\n      dup1\n      returndatacopy\n      revert(0x00, returndatasize)\n    tag_134:\n      pop\n      pop\n      pop\n      pop\n      mload(0x40)\n      returndatasize\n      0x00\n      dup3\n      returndatacopy\n      returndatasize\n      not(0x1f)\n      0x1f\n      dup3\n      add\n      and\n      dup3\n      add\n      dup1\n      0x40\n      mstore\n      pop\n      dup2\n      add\n      swap1\n      tag_135\n      swap2\n      swap1\n      tag_136\n      jump\t// in\n    tag_135:\n        /* \"SimpleStorage.sol\":1717:1747  return this.externalFunction() */\n      swap1\n      pop\n        /* \"SimpleStorage.sol\":1638:1755  function testExternalFunction() view public returns (string memory) {... */\n      swap1\n      jump\t// out\n        /* \"SimpleStorage.sol\":1246:1368  function internalFunction() internal pure returns (string memory) {... */\n    tag_108:\n        /* \"SimpleStorage.sol\":1297:1310  string memory */\n      0x60\n        /* \"SimpleStorage.sol\":1323:1360  return \"This is an internal function\" */\n      mload(0x40)\n      dup1\n      0x40\n      add\n      0x40\n      mstore\n      dup1\n      0x1c\n      dup2\n      mstore\n      0x20\n      add\n      0x5468697320697320616e20696e7465726e616c2066756e6374696f6e00000000\n      dup2\n      mstore\n      pop\n      swap1\n      pop\n        /* \"SimpleStorage.sol\":1246:1368  function internalFunction() internal pure returns (string memory) {... */\n      swap1\n      jump\t// out\n        /* \"#utility.yul\":7:84   */\n    tag_138:\n        /* \"#utility.yul\":44:51   */\n      0x00\n        /* \"#utility.yul\":73:78   */\n      dup2\n        /* \"#utility.yul\":62:78   */\n      swap1\n      pop\n        /* \"#utility.yul\":7:84   */\n      swap2\n      swap1\n      pop\n      jump\t// out\n        /* \"#utility.yul\":90:208   */\n    tag_139:\n        /* \"#utility.yul\":177:201   */\n      tag_187\n        /* \"#utility.yul\":195:200   */\n      dup2\n        /* \"#utility.yul\":177:201   */\n      tag_138\n      jump\t// in\n    tag_187:\n        /* \"#utility.yul\":172:175   */\n      dup3\n        /* \"#utility.yul\":165:202   */\n      mstore\n        /* \"#utility.yul\":90:208   */\n      pop\n      pop\n      jump\t// out\n        /* \"#utility.yul\":214:436   */\n    tag_26:\n        /* \"#utility.yul\":307:311   */\n      0x00\n        /* \"#utility.yul\":345:347   */\n      0x20\n        /* \"#utility.yul\":334:343   */\n      dup3\n        /* \"#utility.yul\":330:348   */\n      add\n        /* \"#utility.yul\":322:348   */\n      swap1\n      pop\n        /* \"#utility.yul\":358:429   */\n      tag_189\n        /* \"#utility.yul\":426:427   */\n      0x00\n        /* \"#utility.yul\":415:424   */\n      dup4\n        /* \"#utility.yul\":411:428   */\n      add\n        /* \"#utility.yul\":402:408   */\n      dup5\n        /* \"#utility.yul\":358:429   */\n      tag_139\n      jump\t// in\n    tag_189:\n        /* \"#utility.yul\":214:436   */\n      swap3\n      swap2\n      pop\n      pop\n      jump\t// out\n        /* \"#utility.yul\":442:532   */\n    tag_140:\n        /* \"#utility.yul\":476:483   */\n      0x00\n        /* \"#utility.yul\":519:524   */\n      dup2\n        /* \"#utility.yul\":512:525   */\n      iszero\n        /* \"#utility.yul\":505:526   */\n      iszero\n        /* \"#utility.yul\":494:526   */\n      swap1\n      pop\n        /* \"#utility.yul\":442:532   */\n      swap2\n      swap1\n      pop\n      jump\t// out\n        /* \"#utility.yul\":538:647   */\n    tag_141:\n        /* \"#utility.yul\":619:640   */\n      tag_192\n        /* \"#utility.yul\":634:639   */\n      dup2\n        /* \"#utility.yul\":619:640   */\n      tag_140\n      jump\t// in\n    tag_192:\n        /* \"#utility.yul\":614:617   */\n      dup3\n        /* \"#utility.yul\":607:641   */\n      mstore\n        /* \"#utility.yul\":538:647   */\n      pop\n      pop\n      jump\t// out\n        /* \"#utility.yul\":653:863   */\n    tag_33:\n        /* \"#utility.yul\":740:744   */\n      0x00\n        /* \"#utility.yul\":778:780   */\n      0x20\n        /* \"#utility.yul\":767:776   */\n      dup3\n        /* \"#utility.yul\":763:781   */\n      add\n        /* \"#utility.yul\":755:781   */\n      swap1\n      pop\n        /* \"#utility.yul\":791:856   */\n      tag_194\n        /* \"#utility.yul\":853:854   */\n      0x00\n        /* \"#utility.yul\":842:851   */\n      dup4\n        /* \"#utility.yul\":838:855   */\n      add\n        /* \"#utility.yul\":829:835   */\n      dup5\n        /* \"#utility.yul\":791:856   */\n      tag_141\n      jump\t// in\n    tag_194:\n        /* \"#utility.yul\":653:863   */\n      swap3\n      swap2\n      pop\n      pop\n      jump\t// out\n        /* \"#utility.yul\":869:944   */\n    tag_142:\n        /* \"#utility.yul\":902:908   */\n      0x00\n        /* \"#utility.yul\":935:937   */\n      0x40\n        /* \"#utility.yul\":929:938   */\n      mload\n        /* \"#utility.yul\":919:938   */\n      swap1\n      pop\n        /* \"#utility.yul\":869:944   */\n      swap1\n      jump\t// out\n        /* \"#utility.yul\":950:1067   */\n    tag_143:\n        /* \"#utility.yul\":1059:1060   */\n      0x00\n        /* \"#utility.yul\":1056:1057   */\n      dup1\n        /* \"#utility.yul\":1049:1061   */\n      revert\n        /* \"#utility.yul\":1073:1190   */\n    tag_144:\n        /* \"#utility.yul\":1182:1183   */\n      0x00\n        /* \"#utility.yul\":1179:1180   */\n      dup1\n        /* \"#utility.yul\":1172:1184   */\n      revert\n        /* \"#utility.yul\":1196:1318   */\n    tag_145:\n        /* \"#utility.yul\":1269:1293   */\n      tag_199\n        /* \"#utility.yul\":1287:1292   */\n      dup2\n        /* \"#utility.yul\":1269:1293   */\n      tag_138\n      jump\t// in\n    tag_199:\n        /* \"#utility.yul\":1262:1267   */\n      dup2\n        /* \"#utility.yul\":1259:1294   */\n      eq\n        /* \"#utility.yul\":1249:1312   */\n      tag_200\n      jumpi\n        /* \"#utility.yul\":1308:1309   */\n      0x00\n        /* \"#utility.yul\":1305:1306   */\n      dup1\n        /* \"#utility.yul\":1298:1310   */\n      revert\n        /* \"#utility.yul\":1249:1312   */\n    tag_200:\n        /* \"#utility.yul\":1196:1318   */\n      pop\n      jump\t// out\n        /* \"#utility.yul\":1324:1463   */\n    tag_146:\n        /* \"#utility.yul\":1370:1375   */\n      0x00\n        /* \"#utility.yul\":1408:1414   */\n      dup2\n        /* \"#utility.yul\":1395:1415   */\n      calldataload\n        /* \"#utility.yul\":1386:1415   */\n      swap1\n      pop\n        /* \"#utility.yul\":1424:1457   */\n      tag_202\n        /* \"#utility.yul\":1451:1456   */\n      dup2\n        /* \"#utility.yul\":1424:1457   */\n      tag_145\n      jump\t// in\n    tag_202:\n        /* \"#utility.yul\":1324:1463   */\n      swap3\n      swap2\n      pop\n      pop\n      jump\t// out\n        /* \"#utility.yul\":1469:1798   */\n    tag_36:\n        /* \"#utility.yul\":1528:1534   */\n      0x00\n        /* \"#utility.yul\":1577:1579   */\n      0x20\n        /* \"#utility.yul\":1565:1574   */\n      dup3\n        /* \"#utility.yul\":1556:1563   */\n      dup5\n        /* \"#utility.yul\":1552:1575   */\n      sub\n        /* \"#utility.yul\":1548:1580   */\n      slt\n        /* \"#utility.yul\":1545:1664   */\n      iszero\n      tag_204\n      jumpi\n        /* \"#utility.yul\":1583:1662   */\n      tag_205\n      tag_143\n      jump\t// in\n    tag_205:\n        /* \"#utility.yul\":1545:1664   */\n    tag_204:\n        /* \"#utility.yul\":1703:1704   */\n      0x00\n        /* \"#utility.yul\":1728:1781   */\n      tag_206\n        /* \"#utility.yul\":1773:1780   */\n      dup5\n        /* \"#utility.yul\":1764:1770   */\n      dup3\n        /* \"#utility.yul\":1753:1762   */\n      dup6\n        /* \"#utility.yul\":1749:1771   */\n      add\n        /* \"#utility.yul\":1728:1781   */\n      tag_146\n      jump\t// in\n    tag_206:\n        /* \"#utility.yul\":1718:1781   */\n      swap2\n      pop\n        /* \"#utility.yul\":1674:1791   */\n      pop\n        /* \"#utility.yul\":1469:1798   */\n      swap3\n      swap2\n      pop\n      pop\n      jump\t// out\n        /* \"#utility.yul\":1804:1903   */\n    tag_147:\n        /* \"#utility.yul\":1856:1862   */\n      0x00\n        /* \"#utility.yul\":1890:1895   */\n      dup2\n        /* \"#utility.yul\":1884:1896   */\n      mload\n        /* \"#utility.yul\":1874:1896   */\n      swap1\n      pop\n        /* \"#utility.yul\":1804:1903   */\n      swap2\n      swap1\n      pop\n      jump\t// out\n        /* \"#utility.yul\":1909:2078   */\n    tag_148:\n        /* \"#utility.yul\":1993:2004   */\n      0x00\n        /* \"#utility.yul\":2027:2033   */\n      dup3\n        /* \"#utility.yul\":2022:2025   */\n      dup3\n        /* \"#utility.yul\":2015:2034   */\n      mstore\n        /* \"#utility.yul\":2067:2071   */\n      0x20\n        /* \"#utility.yul\":2062:2065   */\n      dup3\n        /* \"#utility.yul\":2058:2072   */\n      add\n        /* \"#utility.yul\":2043:2072   */\n      swap1\n      pop\n        /* \"#utility.yul\":1909:2078   */\n      swap3\n      swap2\n      pop\n      pop\n      jump\t// out\n        /* \"#utility.yul\":2084:2223   */\n    tag_149:\n        /* \"#utility.yul\":2173:2179   */\n      dup3\n        /* \"#utility.yul\":2168:2171   */\n      dup2\n        /* \"#utility.yul\":2163:2166   */\n      dup4\n        /* \"#utility.yul\":2157:2180   */\n      mcopy\n        /* \"#utility.yul\":2214:2215   */\n      0x00\n        /* \"#utility.yul\":2205:2211   */\n      dup4\n        /* \"#utility.yul\":2200:2203   */\n      dup4\n        /* \"#utility.yul\":2196:2212   */\n      add\n        /* \"#utility.yul\":2189:2216   */\n      mstore\n        /* \"#utility.yul\":2084:2223   */\n      pop\n      pop\n      pop\n      jump\t// out\n        /* \"#utility.yul\":2229:2331   */\n    tag_150:\n        /* \"#utility.yul\":2270:2276   */\n      0x00\n        /* \"#utility.yul\":2321:2323   */\n      0x1f\n        /* \"#utility.yul\":2317:2324   */\n      not\n        /* \"#utility.yul\":2312:2314   */\n      0x1f\n        /* \"#utility.yul\":2305:2310   */\n      dup4\n        /* \"#utility.yul\":2301:2315   */\n      add\n        /* \"#utility.yul\":2297:2325   */\n      and\n        /* \"#utility.yul\":2287:2325   */\n      swap1\n      pop\n        /* \"#utility.yul\":2229:2331   */\n      swap2\n      swap1\n      pop\n      jump\t// out\n        /* \"#utility.yul\":2337:2714   */\n    tag_151:\n        /* \"#utility.yul\":2425:2428   */\n      0x00\n        /* \"#utility.yul\":2453:2492   */\n      tag_212\n        /* \"#utility.yul\":2486:2491   */\n      dup3\n        /* \"#utility.yul\":2453:2492   */\n      tag_147\n      jump\t// in\n    tag_212:\n        /* \"#utility.yul\":2508:2579   */\n      tag_213\n        /* \"#utility.yul\":2572:2578   */\n      dup2\n        /* \"#utility.yul\":2567:2570   */\n      dup6\n        /* \"#utility.yul\":2508:2579   */\n      tag_148\n      jump\t// in\n    tag_213:\n        /* \"#utility.yul\":2501:2579   */\n      swap4\n      pop\n        /* \"#utility.yul\":2588:2653   */\n      tag_214\n        /* \"#utility.yul\":2646:2652   */\n      dup2\n        /* \"#utility.yul\":2641:2644   */\n      dup6\n        /* \"#utility.yul\":2634:2638   */\n      0x20\n        /* \"#utility.yul\":2627:2632   */\n      dup7\n        /* \"#utility.yul\":2623:2639   */\n      add\n        /* \"#utility.yul\":2588:2653   */\n      tag_149\n      jump\t// in\n    tag_214:\n        /* \"#utility.yul\":2678:2707   */\n      tag_215\n        /* \"#utility.yul\":2700:2706   */\n      dup2\n        /* \"#utility.yul\":2678:2707   */\n      tag_150\n      jump\t// in\n    tag_215:\n        /* \"#utility.yul\":2673:2676   */\n      dup5\n        /* \"#utility.yul\":2669:2708   */\n      add\n        /* \"#utility.yul\":2662:2708   */\n      swap2\n      pop\n        /* \"#utility.yul\":2429:2714   */\n      pop\n        /* \"#utility.yul\":2337:2714   */\n      swap3\n      swap2\n      pop\n      pop\n      jump\t// out\n        /* \"#utility.yul\":2720:3033   */\n    tag_42:\n        /* \"#utility.yul\":2833:2837   */\n      0x00\n        /* \"#utility.yul\":2871:2873   */\n      0x20\n        /* \"#utility.yul\":2860:2869   */\n      dup3\n        /* \"#utility.yul\":2856:2874   */\n      add\n        /* \"#utility.yul\":2848:2874   */\n      swap1\n      pop\n        /* \"#utility.yul\":2920:2929   */\n      dup2\n        /* \"#utility.yul\":2914:2918   */\n      dup2\n        /* \"#utility.yul\":2910:2930   */\n      sub\n        /* \"#utility.yul\":2906:2907   */\n      0x00\n        /* \"#utility.yul\":2895:2904   */\n      dup4\n        /* \"#utility.yul\":2891:2908   */\n      add\n        /* \"#utility.yul\":2884:2931   */\n      mstore\n        /* \"#utility.yul\":2948:3026   */\n      tag_217\n        /* \"#utility.yul\":3021:3025   */\n      dup2\n        /* \"#utility.yul\":3012:3018   */\n      dup5\n        /* \"#utility.yul\":2948:3026   */\n      tag_151\n      jump\t// in\n    tag_217:\n        /* \"#utility.yul\":2940:3026   */\n      swap1\n      pop\n        /* \"#utility.yul\":2720:3033   */\n      swap3\n      swap2\n      pop\n      pop\n      jump\t// out\n        /* \"#utility.yul\":3039:3156   */\n    tag_152:\n        /* \"#utility.yul\":3148:3149   */\n      0x00\n        /* \"#utility.yul\":3145:3146   */\n      dup1\n        /* \"#utility.yul\":3138:3150   */\n      revert\n        /* \"#utility.yul\":3162:3279   */\n    tag_153:\n        /* \"#utility.yul\":3271:3272   */\n      0x00\n        /* \"#utility.yul\":3268:3269   */\n      dup1\n        /* \"#utility.yul\":3261:3273   */\n      revert\n        /* \"#utility.yul\":3285:3465   */\n    tag_154:\n        /* \"#utility.yul\":3333:3410   */\n      0x4e487b7100000000000000000000000000000000000000000000000000000000\n        /* \"#utility.yul\":3330:3331   */\n      0x00\n        /* \"#utility.yul\":3323:3411   */\n      mstore\n        /* \"#utility.yul\":3430:3434   */\n      0x41\n        /* \"#utility.yul\":3427:3428   */\n      0x04\n        /* \"#utility.yul\":3420:3435   */\n      mstore\n        /* \"#utility.yul\":3454:3458   */\n      0x24\n        /* \"#utility.yul\":3451:3452   */\n      0x00\n        /* \"#utility.yul\":3444:3459   */\n      revert\n        /* \"#utility.yul\":3471:3752   */\n    tag_155:\n        /* \"#utility.yul\":3554:3581   */\n      tag_222\n        /* \"#utility.yul\":3576:3580   */\n      dup3\n        /* \"#utility.yul\":3554:3581   */\n      tag_150\n      jump\t// in\n    tag_222:\n        /* \"#utility.yul\":3546:3552   */\n      dup2\n        /* \"#utility.yul\":3542:3582   */\n      add\n        /* \"#utility.yul\":3684:3690   */\n      dup2\n        /* \"#utility.yul\":3672:3682   */\n      dup2\n        /* \"#utility.yul\":3669:3691   */\n      lt\n        /* \"#utility.yul\":3648:3666   */\n      0xffffffffffffffff\n        /* \"#utility.yul\":3636:3646   */\n      dup3\n        /* \"#utility.yul\":3633:3667   */\n      gt\n        /* \"#utility.yul\":3630:3692   */\n      or\n        /* \"#utility.yul\":3627:3715   */\n      iszero\n      tag_223\n      jumpi\n        /* \"#utility.yul\":3695:3713   */\n      tag_224\n      tag_154\n      jump\t// in\n    tag_224:\n        /* \"#utility.yul\":3627:3715   */\n    tag_223:\n        /* \"#utility.yul\":3735:3745   */\n      dup1\n        /* \"#utility.yul\":3731:3733   */\n      0x40\n        /* \"#utility.yul\":3724:3746   */\n      mstore\n        /* \"#utility.yul\":3514:3752   */\n      pop\n        /* \"#utility.yul\":3471:3752   */\n      pop\n      pop\n      jump\t// out\n        /* \"#utility.yul\":3758:3887   */\n    tag_156:\n        /* \"#utility.yul\":3792:3798   */\n      0x00\n        /* \"#utility.yul\":3819:3839   */\n      tag_226\n      tag_142\n      jump\t// in\n    tag_226:\n        /* \"#utility.yul\":3809:3839   */\n      swap1\n      pop\n        /* \"#utility.yul\":3848:3881   */\n      tag_227\n        /* \"#utility.yul\":3876:3880   */\n      dup3\n        /* \"#utility.yul\":3868:3874   */\n      dup3\n        /* \"#utility.yul\":3848:3881   */\n      tag_155\n      jump\t// in\n    tag_227:\n        /* \"#utility.yul\":3758:3887   */\n      swap2\n      swap1\n      pop\n      jump\t// out\n        /* \"#utility.yul\":3893:4201   */\n    tag_157:\n        /* \"#utility.yul\":3955:3959   */\n      0x00\n        /* \"#utility.yul\":4045:4063   */\n      0xffffffffffffffff\n        /* \"#utility.yul\":4037:4043   */\n      dup3\n        /* \"#utility.yul\":4034:4064   */\n      gt\n        /* \"#utility.yul\":4031:4087   */\n      iszero\n      tag_229\n      jumpi\n        /* \"#utility.yul\":4067:4085   */\n      tag_230\n      tag_154\n      jump\t// in\n    tag_230:\n        /* \"#utility.yul\":4031:4087   */\n    tag_229:\n        /* \"#utility.yul\":4105:4134   */\n      tag_231\n        /* \"#utility.yul\":4127:4133   */\n      dup3\n        /* \"#utility.yul\":4105:4134   */\n      tag_150\n      jump\t// in\n    tag_231:\n        /* \"#utility.yul\":4097:4134   */\n      swap1\n      pop\n        /* \"#utility.yul\":4189:4193   */\n      0x20\n        /* \"#utility.yul\":4183:4187   */\n      dup2\n        /* \"#utility.yul\":4179:4194   */\n      add\n        /* \"#utility.yul\":4171:4194   */\n      swap1\n      pop\n        /* \"#utility.yul\":3893:4201   */\n      swap2\n      swap1\n      pop\n      jump\t// out\n        /* \"#utility.yul\":4207:4355   */\n    tag_158:\n        /* \"#utility.yul\":4305:4311   */\n      dup3\n        /* \"#utility.yul\":4300:4303   */\n      dup2\n        /* \"#utility.yul\":4295:4298   */\n      dup4\n        /* \"#utility.yul\":4282:4312   */\n      calldatacopy\n        /* \"#utility.yul\":4346:4347   */\n      0x00\n        /* \"#utility.yul\":4337:4343   */\n      dup4\n        /* \"#utility.yul\":4332:4335   */\n      dup4\n        /* \"#utility.yul\":4328:4344   */\n      add\n        /* \"#utility.yul\":4321:4348   */\n      mstore\n        /* \"#utility.yul\":4207:4355   */\n      pop\n      pop\n      pop\n      jump\t// out\n        /* \"#utility.yul\":4361:4786   */\n    tag_159:\n        /* \"#utility.yul\":4439:4444   */\n      0x00\n        /* \"#utility.yul\":4464:4530   */\n      tag_234\n        /* \"#utility.yul\":4480:4529   */\n      tag_235\n        /* \"#utility.yul\":4522:4528   */\n      dup5\n        /* \"#utility.yul\":4480:4529   */\n      tag_157\n      jump\t// in\n    tag_235:\n        /* \"#utility.yul\":4464:4530   */\n      tag_156\n      jump\t// in\n    tag_234:\n        /* \"#utility.yul\":4455:4530   */\n      swap1\n      pop\n        /* \"#utility.yul\":4553:4559   */\n      dup3\n        /* \"#utility.yul\":4546:4551   */\n      dup2\n        /* \"#utility.yul\":4539:4560   */\n      mstore\n        /* \"#utility.yul\":4591:4595   */\n      0x20\n        /* \"#utility.yul\":4584:4589   */\n      dup2\n        /* \"#utility.yul\":4580:4596   */\n      add\n        /* \"#utility.yul\":4629:4632   */\n      dup5\n        /* \"#utility.yul\":4620:4626   */\n      dup5\n        /* \"#utility.yul\":4615:4618   */\n      dup5\n        /* \"#utility.yul\":4611:4627   */\n      add\n        /* \"#utility.yul\":4608:4633   */\n      gt\n        /* \"#utility.yul\":4605:4717   */\n      iszero\n      tag_236\n      jumpi\n        /* \"#utility.yul\":4636:4715   */\n      tag_237\n      tag_153\n      jump\t// in\n    tag_237:\n        /* \"#utility.yul\":4605:4717   */\n    tag_236:\n        /* \"#utility.yul\":4726:4780   */\n      tag_238\n        /* \"#utility.yul\":4773:4779   */\n      dup5\n        /* \"#utility.yul\":4768:4771   */\n      dup3\n        /* \"#utility.yul\":4763:4766   */\n      dup6\n        /* \"#utility.yul\":4726:4780   */\n      tag_158\n      jump\t// in\n    tag_238:\n        /* \"#utility.yul\":4445:4786   */\n      pop\n        /* \"#utility.yul\":4361:4786   */\n      swap4\n      swap3\n      pop\n      pop\n      pop\n      jump\t// out\n        /* \"#utility.yul\":4806:5146   */\n    tag_160:\n        /* \"#utility.yul\":4862:4867   */\n      0x00\n        /* \"#utility.yul\":4911:4914   */\n      dup3\n        /* \"#utility.yul\":4904:4908   */\n      0x1f\n        /* \"#utility.yul\":4896:4902   */\n      dup4\n        /* \"#utility.yul\":4892:4909   */\n      add\n        /* \"#utility.yul\":4888:4915   */\n      slt\n        /* \"#utility.yul\":4878:5000   */\n      tag_240\n      jumpi\n        /* \"#utility.yul\":4919:4998   */\n      tag_241\n      tag_152\n      jump\t// in\n    tag_241:\n        /* \"#utility.yul\":4878:5000   */\n    tag_240:\n        /* \"#utility.yul\":5036:5042   */\n      dup2\n        /* \"#utility.yul\":5023:5043   */\n      calldataload\n        /* \"#utility.yul\":5061:5140   */\n      tag_242\n        /* \"#utility.yul\":5136:5139   */\n      dup5\n        /* \"#utility.yul\":5128:5134   */\n      dup3\n        /* \"#utility.yul\":5121:5125   */\n      0x20\n        /* \"#utility.yul\":5113:5119   */\n      dup7\n        /* \"#utility.yul\":5109:5126   */\n      add\n        /* \"#utility.yul\":5061:5140   */\n      tag_159\n      jump\t// in\n    tag_242:\n        /* \"#utility.yul\":5052:5140   */\n      swap2\n      pop\n        /* \"#utility.yul\":4868:5146   */\n      pop\n        /* \"#utility.yul\":4806:5146   */\n      swap3\n      swap2\n      pop\n      pop\n      jump\t// out\n        /* \"#utility.yul\":5152:5806   */\n    tag_45:\n        /* \"#utility.yul\":5230:5236   */\n      0x00\n        /* \"#utility.yul\":5238:5244   */\n      dup1\n        /* \"#utility.yul\":5287:5289   */\n      0x40\n        /* \"#utility.yul\":5275:5284   */\n      dup4\n        /* \"#utility.yul\":5266:5273   */\n      dup6\n        /* \"#utility.yul\":5262:5285   */\n      sub\n        /* \"#utility.yul\":5258:5290   */\n      slt\n        /* \"#utility.yul\":5255:5374   */\n      iszero\n      tag_244\n      jumpi\n        /* \"#utility.yul\":5293:5372   */\n      tag_245\n      tag_143\n      jump\t// in\n    tag_245:\n        /* \"#utility.yul\":5255:5374   */\n    tag_244:\n        /* \"#utility.yul\":5441:5442   */\n      0x00\n        /* \"#utility.yul\":5430:5439   */\n      dup4\n        /* \"#utility.yul\":5426:5443   */\n      add\n        /* \"#utility.yul\":5413:5444   */\n      calldataload\n        /* \"#utility.yul\":5471:5489   */\n      0xffffffffffffffff\n        /* \"#utility.yul\":5463:5469   */\n      dup2\n        /* \"#utility.yul\":5460:5490   */\n      gt\n        /* \"#utility.yul\":5457:5574   */\n      iszero\n      tag_246\n      jumpi\n        /* \"#utility.yul\":5493:5572   */\n      tag_247\n      tag_144\n      jump\t// in\n    tag_247:\n        /* \"#utility.yul\":5457:5574   */\n    tag_246:\n        /* \"#utility.yul\":5598:5661   */\n      tag_248\n        /* \"#utility.yul\":5653:5660   */\n      dup6\n        /* \"#utility.yul\":5644:5650   */\n      dup3\n        /* \"#utility.yul\":5633:5642   */\n      dup7\n        /* \"#utility.yul\":5629:5651   */\n      add\n        /* \"#utility.yul\":5598:5661   */\n      tag_160\n      jump\t// in\n    tag_248:\n        /* \"#utility.yul\":5588:5661   */\n      swap3\n      pop\n        /* \"#utility.yul\":5384:5671   */\n      pop\n        /* \"#utility.yul\":5710:5712   */\n      0x20\n        /* \"#utility.yul\":5736:5789   */\n      tag_249\n        /* \"#utility.yul\":5781:5788   */\n      dup6\n        /* \"#utility.yul\":5772:5778   */\n      dup3\n        /* \"#utility.yul\":5761:5770   */\n      dup7\n        /* \"#utility.yul\":5757:5779   */\n      add\n        /* \"#utility.yul\":5736:5789   */\n      tag_146\n      jump\t// in\n    tag_249:\n        /* \"#utility.yul\":5726:5789   */\n      swap2\n      pop\n        /* \"#utility.yul\":5681:5799   */\n      pop\n        /* \"#utility.yul\":5152:5806   */\n      swap3\n      pop\n      swap3\n      swap1\n      pop\n      jump\t// out\n        /* \"#utility.yul\":5812:6235   */\n    tag_59:\n        /* \"#utility.yul\":5953:5957   */\n      0x00\n        /* \"#utility.yul\":5991:5993   */\n      0x40\n        /* \"#utility.yul\":5980:5989   */\n      dup3\n        /* \"#utility.yul\":5976:5994   */\n      add\n        /* \"#utility.yul\":5968:5994   */\n      swap1\n      pop\n        /* \"#utility.yul\":6040:6049   */\n      dup2\n        /* \"#utility.yul\":6034:6038   */\n      dup2\n        /* \"#utility.yul\":6030:6050   */\n      sub\n        /* \"#utility.yul\":6026:6027   */\n      0x00\n        /* \"#utility.yul\":6015:6024   */\n      dup4\n        /* \"#utility.yul\":6011:6028   */\n      add\n        /* \"#utility.yul\":6004:6051   */\n      mstore\n        /* \"#utility.yul\":6068:6146   */\n      tag_251\n        /* \"#utility.yul\":6141:6145   */\n      dup2\n        /* \"#utility.yul\":6132:6138   */\n      dup6\n        /* \"#utility.yul\":6068:6146   */\n      tag_151\n      jump\t// in\n    tag_251:\n        /* \"#utility.yul\":6060:6146   */\n      swap1\n      pop\n        /* \"#utility.yul\":6156:6228   */\n      tag_252\n        /* \"#utility.yul\":6224:6226   */\n      0x20\n        /* \"#utility.yul\":6213:6222   */\n      dup4\n        /* \"#utility.yul\":6209:6227   */\n      add\n        /* \"#utility.yul\":6200:6206   */\n      dup5\n        /* \"#utility.yul\":6156:6228   */\n      tag_139\n      jump\t// in\n    tag_252:\n        /* \"#utility.yul\":5812:6235   */\n      swap4\n      swap3\n      pop\n      pop\n      pop\n      jump\t// out\n        /* \"#utility.yul\":6241:6421   */\n    tag_94:\n        /* \"#utility.yul\":6289:6366   */\n      0x4e487b7100000000000000000000000000000000000000000000000000000000\n        /* \"#utility.yul\":6286:6287   */\n      0x00\n        /* \"#utility.yul\":6279:6367   */\n      mstore\n        /* \"#utility.yul\":6386:6390   */\n      0x21\n        /* \"#utility.yul\":6383:6384   */\n      0x04\n        /* \"#utility.yul\":6376:6391   */\n      mstore\n        /* \"#utility.yul\":6410:6414   */\n      0x24\n        /* \"#utility.yul\":6407:6408   */\n      0x00\n        /* \"#utility.yul\":6400:6415   */\n      revert\n        /* \"#utility.yul\":6427:6548   */\n    tag_161:\n        /* \"#utility.yul\":6516:6517   */\n      0x02\n        /* \"#utility.yul\":6509:6514   */\n      dup2\n        /* \"#utility.yul\":6506:6518   */\n      lt\n        /* \"#utility.yul\":6496:6542   */\n      tag_255\n      jumpi\n        /* \"#utility.yul\":6522:6540   */\n      tag_256\n      tag_94\n      jump\t// in\n    tag_256:\n        /* \"#utility.yul\":6496:6542   */\n    tag_255:\n        /* \"#utility.yul\":6427:6548   */\n      pop\n      jump\t// out\n        /* \"#utility.yul\":6554:6697   */\n    tag_162:\n        /* \"#utility.yul\":6607:6614   */\n      0x00\n        /* \"#utility.yul\":6636:6641   */\n      dup2\n        /* \"#utility.yul\":6625:6641   */\n      swap1\n      pop\n        /* \"#utility.yul\":6642:6691   */\n      tag_258\n        /* \"#utility.yul\":6685:6690   */\n      dup3\n        /* \"#utility.yul\":6642:6691   */\n      tag_161\n      jump\t// in\n    tag_258:\n        /* \"#utility.yul\":6554:6697   */\n      swap2\n      swap1\n      pop\n      jump\t// out\n        /* \"#utility.yul\":6703:6846   */\n    tag_163:\n        /* \"#utility.yul\":6767:6776   */\n      0x00\n        /* \"#utility.yul\":6800:6840   */\n      tag_260\n        /* \"#utility.yul\":6834:6839   */\n      dup3\n        /* \"#utility.yul\":6800:6840   */\n      tag_162\n      jump\t// in\n    tag_260:\n        /* \"#utility.yul\":6787:6840   */\n      swap1\n      pop\n        /* \"#utility.yul\":6703:6846   */\n      swap2\n      swap1\n      pop\n      jump\t// out\n        /* \"#utility.yul\":6852:7011   */\n    tag_164:\n        /* \"#utility.yul\":6953:7004   */\n      tag_262\n        /* \"#utility.yul\":6998:7003   */\n      dup2\n        /* \"#utility.yul\":6953:7004   */\n      tag_163\n      jump\t// in\n    tag_262:\n        /* \"#utility.yul\":6948:6951   */\n      dup3\n        /* \"#utility.yul\":6941:7005   */\n      mstore\n        /* \"#utility.yul\":6852:7011   */\n      pop\n      pop\n      jump\t// out\n        /* \"#utility.yul\":7017:7267   */\n    tag_74:\n        /* \"#utility.yul\":7124:7128   */\n      0x00\n        /* \"#utility.yul\":7162:7164   */\n      0x20\n        /* \"#utility.yul\":7151:7160   */\n      dup3\n        /* \"#utility.yul\":7147:7165   */\n      add\n        /* \"#utility.yul\":7139:7165   */\n      swap1\n      pop\n        /* \"#utility.yul\":7175:7260   */\n      tag_264\n        /* \"#utility.yul\":7257:7258   */\n      0x00\n        /* \"#utility.yul\":7246:7255   */\n      dup4\n        /* \"#utility.yul\":7242:7259   */\n      add\n        /* \"#utility.yul\":7233:7239   */\n      dup5\n        /* \"#utility.yul\":7175:7260   */\n      tag_164\n      jump\t// in\n    tag_264:\n        /* \"#utility.yul\":7017:7267   */\n      swap3\n      swap2\n      pop\n      pop\n      jump\t// out\n        /* \"#utility.yul\":7273:7453   */\n    tag_165:\n        /* \"#utility.yul\":7321:7398   */\n      0x4e487b7100000000000000000000000000000000000000000000000000000000\n        /* \"#utility.yul\":7318:7319   */\n      0x00\n        /* \"#utility.yul\":7311:7399   */\n      mstore\n        /* \"#utility.yul\":7418:7422   */\n      0x11\n        /* \"#utility.yul\":7415:7416   */\n      0x04\n        /* \"#utility.yul\":7408:7423   */\n      mstore\n        /* \"#utility.yul\":7442:7446   */\n      0x24\n        /* \"#utility.yul\":7439:7440   */\n      0x00\n        /* \"#utility.yul\":7432:7447   */\n      revert\n        /* \"#utility.yul\":7459:7650   */\n    tag_88:\n        /* \"#utility.yul\":7499:7502   */\n      0x00\n        /* \"#utility.yul\":7518:7538   */\n      tag_267\n        /* \"#utility.yul\":7536:7537   */\n      dup3\n        /* \"#utility.yul\":7518:7538   */\n      tag_138\n      jump\t// in\n    tag_267:\n        /* \"#utility.yul\":7513:7538   */\n      swap2\n      pop\n        /* \"#utility.yul\":7552:7572   */\n      tag_268\n        /* \"#utility.yul\":7570:7571   */\n      dup4\n        /* \"#utility.yul\":7552:7572   */\n      tag_138\n      jump\t// in\n    tag_268:\n        /* \"#utility.yul\":7547:7572   */\n      swap3\n      pop\n        /* \"#utility.yul\":7595:7596   */\n      dup3\n        /* \"#utility.yul\":7592:7593   */\n      dup3\n        /* \"#utility.yul\":7588:7597   */\n      add\n        /* \"#utility.yul\":7581:7597   */\n      swap1\n      pop\n        /* \"#utility.yul\":7616:7619   */\n      dup1\n        /* \"#utility.yul\":7613:7614   */\n      dup3\n        /* \"#utility.yul\":7610:7620   */\n      gt\n        /* \"#utility.yul\":7607:7643   */\n      iszero\n      tag_269\n      jumpi\n        /* \"#utility.yul\":7623:7641   */\n      tag_270\n      tag_165\n      jump\t// in\n    tag_270:\n        /* \"#utility.yul\":7607:7643   */\n    tag_269:\n        /* \"#utility.yul\":7459:7650   */\n      swap3\n      swap2\n      pop\n      pop\n      jump\t// out\n        /* \"#utility.yul\":7656:7889   */\n    tag_90:\n        /* \"#utility.yul\":7695:7698   */\n      0x00\n        /* \"#utility.yul\":7718:7742   */\n      tag_272\n        /* \"#utility.yul\":7736:7741   */\n      dup3\n        /* \"#utility.yul\":7718:7742   */\n      tag_138\n      jump\t// in\n    tag_272:\n        /* \"#utility.yul\":7709:7742   */\n      swap2\n      pop\n        /* \"#utility.yul\":7764:7830   */\n      0xffffffffffffffffffffffffffffffffffffffffffffffffffffffffffffffff\n        /* \"#utility.yul\":7757:7762   */\n      dup3\n        /* \"#utility.yul\":7754:7831   */\n      sub\n        /* \"#utility.yul\":7751:7854   */\n      tag_273\n      jumpi\n        /* \"#utility.yul\":7834:7852   */\n      tag_274\n      tag_165\n      jump\t// in\n    tag_274:\n        /* \"#utility.yul\":7751:7854   */\n    tag_273:\n        /* \"#utility.yul\":7881:7882   */\n      0x01\n        /* \"#utility.yul\":7874:7879   */\n      dup3\n        /* \"#utility.yul\":7870:7883   */\n      add\n        /* \"#utility.yul\":7863:7883   */\n      swap1\n      pop\n        /* \"#utility.yul\":7656:7889   */\n      swap2\n      swap1\n      pop\n      jump\t// out\n        /* \"#utility.yul\":7895:8075   */\n    tag_166:\n        /* \"#utility.yul\":7943:8020   */\n      0x4e487b7100000000000000000000000000000000000000000000000000000000\n        /* \"#utility.yul\":7940:7941   */\n      0x00\n        /* \"#utility.yul\":7933:8021   */\n      mstore\n        /* \"#utility.yul\":8040:8044   */\n      0x22\n        /* \"#utility.yul\":8037:8038   */\n      0x04\n        /* \"#utility.yul\":8030:8045   */\n      mstore\n        /* \"#utility.yul\":8064:8068   */\n      0x24\n        /* \"#utility.yul\":8061:8062   */\n      0x00\n        /* \"#utility.yul\":8054:8069   */\n      revert\n        /* \"#utility.yul\":8081:8401   */\n    tag_116:\n        /* \"#utility.yul\":8125:8131   */\n      0x00\n        /* \"#utility.yul\":8162:8163   */\n      0x02\n        /* \"#utility.yul\":8156:8160   */\n      dup3\n        /* \"#utility.yul\":8152:8164   */\n      div\n        /* \"#utility.yul\":8142:8164   */\n      swap1\n      pop\n        /* \"#utility.yul\":8209:8210   */\n      0x01\n        /* \"#utility.yul\":8203:8207   */\n      dup3\n        /* \"#utility.yul\":8199:8211   */\n      and\n        /* \"#utility.yul\":8230:8248   */\n      dup1\n        /* \"#utility.yul\":8220:8301   */\n      tag_277\n      jumpi\n        /* \"#utility.yul\":8286:8290   */\n      0x7f\n        /* \"#utility.yul\":8278:8284   */\n      dup3\n        /* \"#utility.yul\":8274:8291   */\n      and\n        /* \"#utility.yul\":8264:8291   */\n      swap2\n      pop\n        /* \"#utility.yul\":8220:8301   */\n    tag_277:\n        /* \"#utility.yul\":8348:8350   */\n      0x20\n        /* \"#utility.yul\":8340:8346   */\n      dup3\n        /* \"#utility.yul\":8337:8351   */\n      lt\n        /* \"#utility.yul\":8317:8335   */\n      dup2\n        /* \"#utility.yul\":8314:8352   */\n      sub\n        /* \"#utility.yul\":8311:8395   */\n      tag_278\n      jumpi\n        /* \"#utility.yul\":8367:8385   */\n      tag_279\n      tag_166\n      jump\t// in\n    tag_279:\n        /* \"#utility.yul\":8311:8395   */\n    tag_278:\n        /* \"#utility.yul\":8132:8401   */\n      pop\n        /* \"#utility.yul\":8081:8401   */\n      swap2\n      swap1\n      pop\n      jump\t// out\n        /* \"#utility.yul\":8407:8548   */\n    tag_167:\n        /* \"#utility.yul\":8456:8460   */\n      0x00\n        /* \"#utility.yul\":8479:8482   */\n      dup2\n        /* \"#utility.yul\":8471:8482   */\n      swap1\n      pop\n        /* \"#utility.yul\":8502:8505   */\n      dup2\n        /* \"#utility.yul\":8499:8500   */\n      0x00\n        /* \"#utility.yul\":8492:8506   */\n      mstore\n        /* \"#utility.yul\":8536:8540   */\n      0x20\n        /* \"#utility.yul\":8533:8534   */\n      0x00\n        /* \"#utility.yul\":8523:8541   */\n      keccak256\n        /* \"#utility.yul\":8515:8541   */\n      swap1\n      pop\n        /* \"#utility.yul\":8407:8548   */\n      swap2\n      swap1\n      pop\n      jump\t// out\n        /* \"#utility.yul\":8554:8647   */\n    tag_168:\n        /* \"#utility.yul\":8591:8597   */\n      0x00\n        /* \"#utility.yul\":8638:8640   */\n      0x20\n        /* \"#utility.yul\":8633:8635   */\n      0x1f\n        /* \"#utility.yul\":8626:8631   */\n      dup4\n        /* \"#utility.yul\":8622:8636   */\n      add\n        /* \"#utility.yul\":8618:8641   */\n      div\n        /* \"#utility.yul\":8608:8641   */\n      swap1\n      pop\n        /* \"#utility.yul\":8554:8647   */\n      swap2\n      swap1\n      pop\n      jump\t// out\n        /* \"#utility.yul\":8653:8760   */\n    tag_169:\n        /* \"#utility.yul\":8697:8705   */\n      0x00\n        /* \"#utility.yul\":8747:8752   */\n      dup3\n        /* \"#utility.yul\":8741:8745   */\n      dup3\n        /* \"#utility.yul\":8737:8753   */\n      shl\n        /* \"#utility.yul\":8716:8753   */\n      swap1\n      pop\n        /* \"#utility.yul\":8653:8760   */\n      swap3\n      swap2\n      pop\n      pop\n      jump\t// out\n        /* \"#utility.yul\":8766:9159   */\n    tag_170:\n        /* \"#utility.yul\":8835:8841   */\n      0x00\n        /* \"#utility.yul\":8885:8886   */\n      0x08\n        /* \"#utility.yul\":8873:8883   */\n      dup4\n        /* \"#utility.yul\":8869:8887   */\n      mul\n        /* \"#utility.yul\":8908:9005   */\n      tag_284\n        /* \"#utility.yul\":8938:9004   */\n      0xffffffffffffffffffffffffffffffffffffffffffffffffffffffffffffffff\n        /* \"#utility.yul\":8927:8936   */\n      dup3\n        /* \"#utility.yul\":8908:9005   */\n      tag_169\n      jump\t// in\n    tag_284:\n        /* \"#utility.yul\":9026:9065   */\n      tag_285\n        /* \"#utility.yul\":9056:9064   */\n      dup7\n        /* \"#utility.yul\":9045:9054   */\n      dup4\n        /* \"#utility.yul\":9026:9065   */\n      tag_169\n      jump\t// in\n    tag_285:\n        /* \"#utility.yul\":9014:9065   */\n      swap6\n      pop\n        /* \"#utility.yul\":9098:9102   */\n      dup1\n        /* \"#utility.yul\":9094:9103   */\n      not\n        /* \"#utility.yul\":9087:9092   */\n      dup5\n        /* \"#utility.yul\":9083:9104   */\n      and\n        /* \"#utility.yul\":9074:9104   */\n      swap4\n      pop\n        /* \"#utility.yul\":9147:9151   */\n      dup1\n        /* \"#utility.yul\":9137:9145   */\n      dup7\n        /* \"#utility.yul\":9133:9152   */\n      and\n        /* \"#utility.yul\":9126:9131   */\n      dup5\n        /* \"#utility.yul\":9123:9153   */\n      or\n        /* \"#utility.yul\":9113:9153   */\n      swap3\n      pop\n        /* \"#utility.yul\":8842:9159   */\n      pop\n      pop\n        /* \"#utility.yul\":8766:9159   */\n      swap4\n      swap3\n      pop\n      pop\n      pop\n      jump\t// out\n        /* \"#utility.yul\":9165:9225   */\n    tag_171:\n        /* \"#utility.yul\":9193:9196   */\n      0x00\n        /* \"#utility.yul\":9214:9219   */\n      dup2\n        /* \"#utility.yul\":9207:9219   */\n      swap1\n      pop\n        /* \"#utility.yul\":9165:9225   */\n      swap2\n      swap1\n      pop\n      jump\t// out\n        /* \"#utility.yul\":9231:9373   */\n    tag_172:\n        /* \"#utility.yul\":9281:9290   */\n      0x00\n        /* \"#utility.yul\":9314:9367   */\n      tag_288\n        /* \"#utility.yul\":9332:9366   */\n      tag_289\n        /* \"#utility.yul\":9341:9365   */\n      tag_290\n        /* \"#utility.yul\":9359:9364   */\n      dup5\n        /* \"#utility.yul\":9341:9365   */\n      tag_138\n      jump\t// in\n    tag_290:\n        /* \"#utility.yul\":9332:9366   */\n      tag_171\n      jump\t// in\n    tag_289:\n        /* \"#utility.yul\":9314:9367   */\n      tag_138\n      jump\t// in\n    tag_288:\n        /* \"#utility.yul\":9301:9367   */\n      swap1\n      pop\n        /* \"#utility.yul\":9231:9373   */\n      swap2\n      swap1\n      pop\n      jump\t// out\n        /* \"#utility.yul\":9379:9454   */\n    tag_173:\n        /* \"#utility.yul\":9422:9425   */\n      0x00\n        /* \"#utility.yul\":9443:9448   */\n      dup2\n        /* \"#utility.yul\":9436:9448   */\n      swap1\n      pop\n        /* \"#utility.yul\":9379:9454   */\n      swap2\n      swap1\n      pop\n      jump\t// out\n        /* \"#utility.yul\":9460:9729   */\n    tag_174:\n        /* \"#utility.yul\":9570:9609   */\n      tag_293\n        /* \"#utility.yul\":9601:9608   */\n      dup4\n        /* \"#utility.yul\":9570:9609   */\n      tag_172\n      jump\t// in\n    tag_293:\n        /* \"#utility.yul\":9631:9722   */\n      tag_294\n        /* \"#utility.yul\":9680:9721   */\n      tag_295\n        /* \"#utility.yul\":9704:9720   */\n      dup3\n        /* \"#utility.yul\":9680:9721   */\n      tag_173\n      jump\t// in\n    tag_295:\n        /* \"#utility.yul\":9672:9678   */\n      dup5\n        /* \"#utility.yul\":9665:9669   */\n      dup5\n        /* \"#utility.yul\":9659:9670   */\n      sload\n        /* \"#utility.yul\":9631:9722   */\n      tag_170\n      jump\t// in\n    tag_294:\n        /* \"#utility.yul\":9625:9629   */\n      dup3\n        /* \"#utility.yul\":9618:9723   */\n      sstore\n        /* \"#utility.yul\":9536:9729   */\n      pop\n        /* \"#utility.yul\":9460:9729   */\n      pop\n      pop\n      pop\n      jump\t// out\n        /* \"#utility.yul\":9735:9808   */\n    tag_175:\n        /* \"#utility.yul\":9780:9783   */\n      0x00\n        /* \"#utility.yul\":9735:9808   */\n      swap1\n      jump\t// out\n        /* \"#utility.yul\":9814:10003   */\n    tag_176:\n        /* \"#utility.yul\":9891:9923   */\n      tag_298\n      tag_175\n      jump\t// in\n    tag_298:\n        /* \"#utility.yul\":9932:9997   */\n      tag_299\n        /* \"#utility.yul\":9990:9996   */\n      dup2\n        /* \"#utility.yul\":9982:9988   */\n      dup5\n        /* \"#utility.yul\":9976:9980   */\n      dup5\n        /* \"#utility.yul\":9932:9997   */\n      tag_174\n      jump\t// in\n    tag_299:\n        /* \"#utility.yul\":9867:10003   */\n      pop\n        /* \"#utility.yul\":9814:10003   */\n      pop\n      pop\n      jump\t// out\n        /* \"#utility.yul\":10009:10195   */\n    tag_177:\n        /* \"#utility.yul\":10069:10189   */\n    tag_301:\n        /* \"#utility.yul\":10086:10089   */\n      dup2\n        /* \"#utility.yul\":10079:10084   */\n      dup2\n        /* \"#utility.yul\":10076:10090   */\n      lt\n        /* \"#utility.yul\":10069:10189   */\n      iszero\n      tag_303\n      jumpi\n        /* \"#utility.yul\":10140:10179   */\n      tag_304\n        /* \"#utility.yul\":10177:10178   */\n      0x00\n        /* \"#utility.yul\":10170:10175   */\n      dup3\n        /* \"#utility.yul\":10140:10179   */\n      tag_176\n      jump\t// in\n    tag_304:\n        /* \"#utility.yul\":10113:10114   */\n      0x01\n        /* \"#utility.yul\":10106:10111   */\n      dup2\n        /* \"#utility.yul\":10102:10115   */\n      add\n        /* \"#utility.yul\":10093:10115   */\n      swap1\n      pop\n        /* \"#utility.yul\":10069:10189   */\n      jump(tag_301)\n    tag_303:\n        /* \"#utility.yul\":10009:10195   */\n      pop\n      pop\n      jump\t// out\n        /* \"#utility.yul\":10201:10744   */\n    tag_178:\n        /* \"#utility.yul\":10302:10304   */\n      0x1f\n        /* \"#utility.yul\":10297:10300   */\n      dup3\n        /* \"#utility.yul\":10294:10305   */\n      gt\n        /* \"#utility.yul\":10291:10737   */\n      iszero\n      tag_306\n      jumpi\n        /* \"#utility.yul\":10336:10374   */\n      tag_307\n        /* \"#utility.yul\":10368:10373   */\n      dup2\n        /* \"#utility.yul\":10336:10374   */\n      tag_167\n      jump\t// in\n    tag_307:\n        /* \"#utility.yul\":10420:10449   */\n      tag_308\n        /* \"#utility.yul\":10438:10448   */\n      dup5\n        /* \"#utility.yul\":10420:10449   */\n      tag_168\n      jump\t// in\n    tag_308:\n        /* \"#utility.yul\":10410:10418   */\n      dup2\n        /* \"#utility.yul\":10406:10450   */\n      add\n        /* \"#utility.yul\":10603:10605   */\n      0x20\n        /* \"#utility.yul\":10591:10601   */\n      dup6\n        /* \"#utility.yul\":10588:10606   */\n      lt\n        /* \"#utility.yul\":10585:10634   */\n      iszero\n      tag_309\n      jumpi\n        /* \"#utility.yul\":10624:10632   */\n      dup2\n        /* \"#utility.yul\":10609:10632   */\n      swap1\n      pop\n        /* \"#utility.yul\":10585:10634   */\n    tag_309:\n        /* \"#utility.yul\":10647:10727   */\n      tag_310\n        /* \"#utility.yul\":10703:10725   */\n      tag_311\n        /* \"#utility.yul\":10721:10724   */\n      dup6\n        /* \"#utility.yul\":10703:10725   */\n      tag_168\n      jump\t// in\n    tag_311:\n        /* \"#utility.yul\":10693:10701   */\n      dup4\n        /* \"#utility.yul\":10689:10726   */\n      add\n        /* \"#utility.yul\":10676:10687   */\n      dup3\n        /* \"#utility.yul\":10647:10727   */\n      tag_177\n      jump\t// in\n    tag_310:\n        /* \"#utility.yul\":10306:10737   */\n      pop\n      pop\n        /* \"#utility.yul\":10291:10737   */\n    tag_306:\n        /* \"#utility.yul\":10201:10744   */\n      pop\n      pop\n      pop\n      jump\t// out\n        /* \"#utility.yul\":10750:10867   */\n    tag_179:\n        /* \"#utility.yul\":10804:10812   */\n      0x00\n        /* \"#utility.yul\":10854:10859   */\n      dup3\n        /* \"#utility.yul\":10848:10852   */\n      dup3\n        /* \"#utility.yul\":10844:10860   */\n      shr\n        /* \"#utility.yul\":10823:10860   */\n      swap1\n      pop\n        /* \"#utility.yul\":10750:10867   */\n      swap3\n      swap2\n      pop\n      pop\n      jump\t// out\n        /* \"#utility.yul\":10873:11042   */\n    tag_180:\n        /* \"#utility.yul\":10917:10923   */\n      0x00\n        /* \"#utility.yul\":10950:11001   */\n      tag_314\n        /* \"#utility.yul\":10998:10999   */\n      0x00\n        /* \"#utility.yul\":10994:11000   */\n      not\n        /* \"#utility.yul\":10986:10991   */\n      dup5\n        /* \"#utility.yul\":10983:10984   */\n      0x08\n        /* \"#utility.yul\":10979:10992   */\n      mul\n        /* \"#utility.yul\":10950:11001   */\n      tag_179\n      jump\t// in\n    tag_314:\n        /* \"#utility.yul\":10946:11002   */\n      not\n        /* \"#utility.yul\":11031:11035   */\n      dup1\n        /* \"#utility.yul\":11025:11029   */\n      dup4\n        /* \"#utility.yul\":11021:11036   */\n      and\n        /* \"#utility.yul\":11011:11036   */\n      swap2\n      pop\n        /* \"#utility.yul\":10924:11042   */\n      pop\n        /* \"#utility.yul\":10873:11042   */\n      swap3\n      swap2\n      pop\n      pop\n      jump\t// out\n        /* \"#utility.yul\":11047:11342   */\n    tag_181:\n        /* \"#utility.yul\":11123:11127   */\n      0x00\n        /* \"#utility.yul\":11269:11298   */\n      tag_316\n        /* \"#utility.yul\":11294:11297   */\n      dup4\n        /* \"#utility.yul\":11288:11292   */\n      dup4\n        /* \"#utility.yul\":11269:11298   */\n      tag_180\n      jump\t// in\n    tag_316:\n        /* \"#utility.yul\":11261:11298   */\n      swap2\n      pop\n        /* \"#utility.yul\":11331:11334   */\n      dup3\n        /* \"#utility.yul\":11328:11329   */\n      0x02\n        /* \"#utility.yul\":11324:11335   */\n      mul\n        /* \"#utility.yul\":11318:11322   */\n      dup3\n        /* \"#utility.yul\":11315:11336   */\n      or\n        /* \"#utility.yul\":11307:11336   */\n      swap1\n      pop\n        /* \"#utility.yul\":11047:11342   */\n      swap3\n      swap2\n      pop\n      pop\n      jump\t// out\n        /* \"#utility.yul\":11347:12742   */\n    tag_103:\n        /* \"#utility.yul\":11464:11501   */\n      tag_318\n        /* \"#utility.yul\":11497:11500   */\n      dup3\n        /* \"#utility.yul\":11464:11501   */\n      tag_147\n      jump\t// in\n    tag_318:\n        /* \"#utility.yul\":11566:11584   */\n      0xffffffffffffffff\n        /* \"#utility.yul\":11558:11564   */\n      dup2\n        /* \"#utility.yul\":11555:11585   */\n      gt\n        /* \"#utility.yul\":11552:11608   */\n      iszero\n      tag_319\n      jumpi\n        /* \"#utility.yul\":11588:11606   */\n      tag_320\n      tag_154\n      jump\t// in\n    tag_320:\n        /* \"#utility.yul\":11552:11608   */\n    tag_319:\n        /* \"#utility.yul\":11632:11670   */\n      tag_321\n        /* \"#utility.yul\":11664:11668   */\n      dup3\n        /* \"#utility.yul\":11658:11669   */\n      sload\n        /* \"#utility.yul\":11632:11670   */\n      tag_116\n      jump\t// in\n    tag_321:\n        /* \"#utility.yul\":11717:11784   */\n      tag_322\n        /* \"#utility.yul\":11777:11783   */\n      dup3\n        /* \"#utility.yul\":11769:11775   */\n      dup3\n        /* \"#utility.yul\":11763:11767   */\n      dup6\n        /* \"#utility.yul\":11717:11784   */\n      tag_178\n      jump\t// in\n    tag_322:\n        /* \"#utility.yul\":11811:11812   */\n      0x00\n        /* \"#utility.yul\":11835:11839   */\n      0x20\n        /* \"#utility.yul\":11822:11839   */\n      swap1\n      pop\n        /* \"#utility.yul\":11867:11869   */\n      0x1f\n        /* \"#utility.yul\":11859:11865   */\n      dup4\n        /* \"#utility.yul\":11856:11870   */\n      gt\n        /* \"#utility.yul\":11884:11885   */\n      0x01\n        /* \"#utility.yul\":11879:12497   */\n      dup2\n      eq\n      tag_324\n      jumpi\n        /* \"#utility.yul\":12541:12542   */\n      0x00\n        /* \"#utility.yul\":12558:12564   */\n      dup5\n        /* \"#utility.yul\":12555:12632   */\n      iszero\n      tag_325\n      jumpi\n        /* \"#utility.yul\":12607:12616   */\n      dup3\n        /* \"#utility.yul\":12602:12605   */\n      dup8\n        /* \"#utility.yul\":12598:12617   */\n      add\n        /* \"#utility.yul\":12592:12618   */\n      mload\n        /* \"#utility.yul\":12583:12618   */\n      swap1\n      pop\n        /* \"#utility.yul\":12555:12632   */\n    tag_325:\n        /* \"#utility.yul\":12658:12725   */\n      tag_326\n        /* \"#utility.yul\":12718:12724   */\n      dup6\n        /* \"#utility.yul\":12711:12716   */\n      dup3\n        /* \"#utility.yul\":12658:12725   */\n      tag_181\n      jump\t// in\n    tag_326:\n        /* \"#utility.yul\":12652:12656   */\n      dup7\n        /* \"#utility.yul\":12645:12726   */\n      sstore\n        /* \"#utility.yul\":12514:12736   */\n      pop\n        /* \"#utility.yul\":11849:12736   */\n      jump(tag_323)\n        /* \"#utility.yul\":11879:12497   */\n    tag_324:\n        /* \"#utility.yul\":11931:11935   */\n      0x1f\n        /* \"#utility.yul\":11927:11936   */\n      not\n        /* \"#utility.yul\":11919:11925   */\n      dup5\n        /* \"#utility.yul\":11915:11937   */\n      and\n        /* \"#utility.yul\":11965:12002   */\n      tag_327\n        /* \"#utility.yul\":11997:12001   */\n      dup7\n        /* \"#utility.yul\":11965:12002   */\n      tag_167\n      jump\t// in\n    tag_327:\n        /* \"#utility.yul\":12024:12025   */\n      0x00\n        /* \"#utility.yul\":12038:12246   */\n    tag_328:\n        /* \"#utility.yul\":12052:12059   */\n      dup3\n        /* \"#utility.yul\":12049:12050   */\n      dup2\n        /* \"#utility.yul\":12046:12060   */\n      lt\n        /* \"#utility.yul\":12038:12246   */\n      iszero\n      tag_330\n      jumpi\n        /* \"#utility.yul\":12131:12140   */\n      dup5\n        /* \"#utility.yul\":12126:12129   */\n      dup10\n        /* \"#utility.yul\":12122:12141   */\n      add\n        /* \"#utility.yul\":12116:12142   */\n      mload\n        /* \"#utility.yul\":12108:12114   */\n      dup3\n        /* \"#utility.yul\":12101:12143   */\n      sstore\n        /* \"#utility.yul\":12182:12183   */\n      0x01\n        /* \"#utility.yul\":12174:12180   */\n      dup3\n        /* \"#utility.yul\":12170:12184   */\n      add\n        /* \"#utility.yul\":12160:12184   */\n      swap2\n      pop\n        /* \"#utility.yul\":12229:12231   */\n      0x20\n        /* \"#utility.yul\":12218:12227   */\n      dup6\n        /* \"#utility.yul\":12214:12232   */\n      add\n        /* \"#utility.yul\":12201:12232   */\n      swap5\n      pop\n        /* \"#utility.yul\":12075:12079   */\n      0x20\n        /* \"#utility.yul\":12072:12073   */\n      dup2\n        /* \"#utility.yul\":12068:12080   */\n      add\n        /* \"#utility.yul\":12063:12080   */\n      swap1\n      pop\n        /* \"#utility.yul\":12038:12246   */\n      jump(tag_328)\n    tag_330:\n        /* \"#utility.yul\":12274:12280   */\n      dup7\n        /* \"#utility.yul\":12265:12272   */\n      dup4\n        /* \"#utility.yul\":12262:12281   */\n      lt\n        /* \"#utility.yul\":12259:12438   */\n      iszero\n      tag_331\n      jumpi\n        /* \"#utility.yul\":12332:12341   */\n      dup5\n        /* \"#utility.yul\":12327:12330   */\n      dup10\n        /* \"#utility.yul\":12323:12342   */\n      add\n        /* \"#utility.yul\":12317:12343   */\n      mload\n        /* \"#utility.yul\":12375:12423   */\n      tag_332\n        /* \"#utility.yul\":12417:12421   */\n      0x1f\n        /* \"#utility.yul\":12409:12415   */\n      dup10\n        /* \"#utility.yul\":12405:12422   */\n      and\n        /* \"#utility.yul\":12394:12403   */\n      dup3\n        /* \"#utility.yul\":12375:12423   */\n      tag_180\n      jump\t// in\n    tag_332:\n        /* \"#utility.yul\":12367:12373   */\n      dup4\n        /* \"#utility.yul\":12360:12424   */\n      sstore\n        /* \"#utility.yul\":12282:12438   */\n      pop\n        /* \"#utility.yul\":12259:12438   */\n    tag_331:\n        /* \"#utility.yul\":12484:12485   */\n      0x01\n        /* \"#utility.yul\":12480:12481   */\n      0x02\n        /* \"#utility.yul\":12472:12478   */\n      dup9\n        /* \"#utility.yul\":12468:12482   */\n      mul\n        /* \"#utility.yul\":12464:12486   */\n      add\n        /* \"#utility.yul\":12458:12462   */\n      dup9\n        /* \"#utility.yul\":12451:12487   */\n      sstore\n        /* \"#utility.yul\":11886:12497   */\n      pop\n      pop\n      pop\n        /* \"#utility.yul\":11849:12736   */\n    tag_323:\n      pop\n        /* \"#utility.yul\":11439:12742   */\n      pop\n      pop\n      pop\n        /* \"#utility.yul\":11347:12742   */\n      pop\n      pop\n      jump\t// out\n        /* \"#utility.yul\":12748:13182   */\n    tag_182:\n        /* \"#utility.yul\":12837:12842   */\n      0x00\n        /* \"#utility.yul\":12862:12928   */\n      tag_334\n        /* \"#utility.yul\":12878:12927   */\n      tag_335\n        /* \"#utility.yul\":12920:12926   */\n      dup5\n        /* \"#utility.yul\":12878:12927   */\n      tag_157\n      jump\t// in\n    tag_335:\n        /* \"#utility.yul\":12862:12928   */\n      tag_156\n      jump\t// in\n    tag_334:\n        /* \"#utility.yul\":12853:12928   */\n      swap1\n      pop\n        /* \"#utility.yul\":12951:12957   */\n      dup3\n        /* \"#utility.yul\":12944:12949   */\n      dup2\n        /* \"#utility.yul\":12937:12958   */\n      mstore\n        /* \"#utility.yul\":12989:12993   */\n      0x20\n        /* \"#utility.yul\":12982:12987   */\n      dup2\n        /* \"#utility.yul\":12978:12994   */\n      add\n        /* \"#utility.yul\":13027:13030   */\n      dup5\n        /* \"#utility.yul\":13018:13024   */\n      dup5\n        /* \"#utility.yul\":13013:13016   */\n      dup5\n        /* \"#utility.yul\":13009:13025   */\n      add\n        /* \"#utility.yul\":13006:13031   */\n      gt\n        /* \"#utility.yul\":13003:13115   */\n      iszero\n      tag_336\n      jumpi\n        /* \"#utility.yul\":13034:13113   */\n      tag_337\n      tag_153\n      jump\t// in\n    tag_337:\n        /* \"#utility.yul\":13003:13115   */\n    tag_336:\n        /* \"#utility.yul\":13124:13176   */\n      tag_338\n        /* \"#utility.yul\":13169:13175   */\n      dup5\n        /* \"#utility.yul\":13164:13167   */\n      dup3\n        /* \"#utility.yul\":13159:13162   */\n      dup6\n        /* \"#utility.yul\":13124:13176   */\n      tag_149\n      jump\t// in\n    tag_338:\n        /* \"#utility.yul\":12843:13182   */\n      pop\n        /* \"#utility.yul\":12748:13182   */\n      swap4\n      swap3\n      pop\n      pop\n      pop\n      jump\t// out\n        /* \"#utility.yul\":13202:13557   */\n    tag_183:\n        /* \"#utility.yul\":13269:13274   */\n      0x00\n        /* \"#utility.yul\":13318:13321   */\n      dup3\n        /* \"#utility.yul\":13311:13315   */\n      0x1f\n        /* \"#utility.yul\":13303:13309   */\n      dup4\n        /* \"#utility.yul\":13299:13316   */\n      add\n        /* \"#utility.yul\":13295:13322   */\n      slt\n        /* \"#utility.yul\":13285:13407   */\n      tag_340\n      jumpi\n        /* \"#utility.yul\":13326:13405   */\n      tag_341\n      tag_152\n      jump\t// in\n    tag_341:\n        /* \"#utility.yul\":13285:13407   */\n    tag_340:\n        /* \"#utility.yul\":13436:13442   */\n      dup2\n        /* \"#utility.yul\":13430:13443   */\n      mload\n        /* \"#utility.yul\":13461:13551   */\n      tag_342\n        /* \"#utility.yul\":13547:13550   */\n      dup5\n        /* \"#utility.yul\":13539:13545   */\n      dup3\n        /* \"#utility.yul\":13532:13536   */\n      0x20\n        /* \"#utility.yul\":13524:13530   */\n      dup7\n        /* \"#utility.yul\":13520:13537   */\n      add\n        /* \"#utility.yul\":13461:13551   */\n      tag_182\n      jump\t// in\n    tag_342:\n        /* \"#utility.yul\":13452:13551   */\n      swap2\n      pop\n        /* \"#utility.yul\":13275:13557   */\n      pop\n        /* \"#utility.yul\":13202:13557   */\n      swap3\n      swap2\n      pop\n      pop\n      jump\t// out\n        /* \"#utility.yul\":13563:14087   */\n    tag_136:\n        /* \"#utility.yul\":13643:13649   */\n      0x00\n        /* \"#utility.yul\":13692:13694   */\n      0x20\n        /* \"#utility.yul\":13680:13689   */\n      dup3\n        /* \"#utility.yul\":13671:13678   */\n      dup5\n        /* \"#utility.yul\":13667:13690   */\n      sub\n        /* \"#utility.yul\":13663:13695   */\n      slt\n        /* \"#utility.yul\":13660:13779   */\n      iszero\n      tag_344\n      jumpi\n        /* \"#utility.yul\":13698:13777   */\n      tag_345\n      tag_143\n      jump\t// in\n    tag_345:\n        /* \"#utility.yul\":13660:13779   */\n    tag_344:\n        /* \"#utility.yul\":13839:13840   */\n      0x00\n        /* \"#utility.yul\":13828:13837   */\n      dup3\n        /* \"#utility.yul\":13824:13841   */\n      add\n        /* \"#utility.yul\":13818:13842   */\n      mload\n        /* \"#utility.yul\":13869:13887   */\n      0xffffffffffffffff\n        /* \"#utility.yul\":13861:13867   */\n      dup2\n        /* \"#utility.yul\":13858:13888   */\n      gt\n        /* \"#utility.yul\":13855:13972   */\n      iszero\n      tag_346\n      jumpi\n        /* \"#utility.yul\":13891:13970   */\n      tag_347\n      tag_144\n      jump\t// in\n    tag_347:\n        /* \"#utility.yul\":13855:13972   */\n    tag_346:\n        /* \"#utility.yul\":13996:14070   */\n      tag_348\n        /* \"#utility.yul\":14062:14069   */\n      dup5\n        /* \"#utility.yul\":14053:14059   */\n      dup3\n        /* \"#utility.yul\":14042:14051   */\n      dup6\n        /* \"#utility.yul\":14038:14060   */\n      add\n        /* \"#utility.yul\":13996:14070   */\n      tag_183\n      jump\t// in\n    tag_348:\n        /* \"#utility.yul\":13986:14070   */\n      swap2\n      pop\n        /* \"#utility.yul\":13789:14080   */\n      pop\n        /* \"#utility.yul\":13563:14087   */\n      swap3\n      swap2\n      pop\n      pop\n      jump\t// out\n\n    auxdata: 0xa2646970667358221220ccde7f0e75a00c5c958078287f1dae9fe77cd466524fe1bad750146c387e98a364736f6c634300081a0033\n}\n",
				"bytecode": {
					"linkReferences": {},
					"object": "6080604052348015600e575f80fd5b50610fae8061001c5f395ff3fe608060405234801561000f575f80fd5b5060043610610109575f3560e01c80638fda356d116100a0578063b63394181161006f578063b633941814610282578063bca353be1461029e578063c19d93fb146102a8578063cb6a33f8146102c6578063e0819c9a146102f657610109565b80638fda356d1461020d5780639e7a13ad14610217578063a621d15e14610248578063a7e1a3641461026657610109565b80633a32b549116100dc5780633a32b549146101975780636f760f41146101b55780637b2f685d146101d15780638701f8ca146101ef57610109565b80630c8c38c91461010d5780630cd2636e1461012b57806322f3e2d41461014957806329cd1d9614610167575b5f80fd5b610115610314565b60405161012291906107d1565b60405180910390f35b610133610320565b60405161014091906107d1565b60405180910390f35b61015161035c565b60405161015e9190610804565b60405180910390f35b610181600480360381019061017c9190610858565b610397565b60405161018e91906107d1565b60405180910390f35b61019f6103b7565b6040516101ac91906108f3565b60405180910390f35b6101cf60048036038101906101ca9190610a3f565b6103f4565b005b6101d961048e565b6040516101e691906107d1565b60405180910390f35b6101f761049a565b60405161020491906108f3565b60405180910390f35b6102156104a9565b005b610231600480360381019061022c9190610858565b610519565b60405161023f929190610a99565b60405180910390f35b6102506105ce565b60405161025d91906107d1565b60405180910390f35b610280600480360381019061027b9190610858565b6105d6565b005b61029c60048036038101906102979190610858565b610636565b005b6102a6610676565b005b6102b06106e7565b6040516102bd9190610b3a565b60405180910390f35b6102e060048036038101906102db9190610858565b6106f9565b6040516102ed9190610804565b60405180910390f35b6102fe610705565b60405161030b91906108f3565b60405180910390f35b5f600280549050905090565b5f805f90505f600190505b5f54811161035457808261033f9190610b80565b9150808061034c90610bb3565b91505061032b565b508091505090565b5f8060018111156103705761036f610ac7565b5b60035f9054906101000a900460ff16600181111561039157610390610ac7565b5b14905090565b600181815481106103a6575f80fd5b905f5260205f20015f915090505481565b60606040518060400160405280601c81526020017f5468697320697320616e2065787465726e616c2066756e6374696f6e00000000815250905090565b6002604051806040016040528084815260200183815250908060018154018082558091505060019003905f5260205f2090600202015f909190919091505f820151815f0190816104449190610df4565b506020820151816001015550507f038689efcc6afee3cd9a9149881ac988a4baf9420f51737c9d3d832fe2d5b5398282604051610482929190610a99565b60405180910390a15050565b5f600180549050905090565b60606104a461077c565b905090565b5f60035f6101000a81548160ff021916908360018111156104cd576104cc610ac7565b5b02179055507fab540c1b3defd38d975e65aa0e06eeee132a55dd082be87b73f505ab57bed48c60035f9054906101000a900460ff1660405161050f9190610b3a565b60405180910390a1565b60028181548110610528575f80fd5b905f5260205f2090600202015f91509050805f01805461054790610c27565b80601f016020809104026020016040519081016040528092919081815260200182805461057390610c27565b80156105be5780601f10610595576101008083540402835291602001916105be565b820191905f5260205f20905b8154815290600101906020018083116105a157829003601f168201915b5050505050908060010154905082565b5f8054905090565b600181908060018154018082558091505060019003905f5260205f20015f90919091909150557f863998ab206170ca379aa4dc8a1b8eaf9944abe3f6f7d4571b42db890169a7f38160405161062b91906107d1565b60405180910390a150565b805f819055507f3564ffb2fd8f93d7b0e9d1173ffdff5ee9775d860bfe82eaca0d0dbe07c8b6348160405161066b91906107d1565b60405180910390a150565b600160035f6101000a81548160ff0219169083600181111561069b5761069a610ac7565b5b02179055507fab540c1b3defd38d975e65aa0e06eeee132a55dd082be87b73f505ab57bed48c60035f9054906101000a900460ff166040516106dd9190610b3a565b60405180910390a1565b60035f9054906101000a900460ff1681565b5f815f54119050919050565b60603073ffffffffffffffffffffffffffffffffffffffff16633a32b5496040518163ffffffff1660e01b81526004015f60405180830381865afa15801561074f573d5f803e3d5ffd5b505050506040513d5f823e3d601f19601f820116820180604052508101906107779190610f31565b905090565b60606040518060400160405280601c81526020017f5468697320697320616e20696e7465726e616c2066756e6374696f6e00000000815250905090565b5f819050919050565b6107cb816107b9565b82525050565b5f6020820190506107e45f8301846107c2565b92915050565b5f8115159050919050565b6107fe816107ea565b82525050565b5f6020820190506108175f8301846107f5565b92915050565b5f604051905090565b5f80fd5b5f80fd5b610837816107b9565b8114610841575f80fd5b50565b5f813590506108528161082e565b92915050565b5f6020828403121561086d5761086c610826565b5b5f61087a84828501610844565b91505092915050565b5f81519050919050565b5f82825260208201905092915050565b8281835e5f83830152505050565b5f601f19601f8301169050919050565b5f6108c582610883565b6108cf818561088d565b93506108df81856020860161089d565b6108e8816108ab565b840191505092915050565b5f6020820190508181035f83015261090b81846108bb565b905092915050565b5f80fd5b5f80fd5b7f4e487b71000000000000000000000000000000000000000000000000000000005f52604160045260245ffd5b610951826108ab565b810181811067ffffffffffffffff821117156109705761096f61091b565b5b80604052505050565b5f61098261081d565b905061098e8282610948565b919050565b5f67ffffffffffffffff8211156109ad576109ac61091b565b5b6109b6826108ab565b9050602081019050919050565b828183375f83830152505050565b5f6109e36109de84610993565b610979565b9050828152602081018484840111156109ff576109fe610917565b5b610a0a8482856109c3565b509392505050565b5f82601f830112610a2657610a25610913565b5b8135610a368482602086016109d1565b91505092915050565b5f8060408385031215610a5557610a54610826565b5b5f83013567ffffffffffffffff811115610a7257610a7161082a565b5b610a7e85828601610a12565b9250506020610a8f85828601610844565b9150509250929050565b5f6040820190508181035f830152610ab181856108bb565b9050610ac060208301846107c2565b9392505050565b7f4e487b71000000000000000000000000000000000000000000000000000000005f52602160045260245ffd5b60028110610b0557610b04610ac7565b5b50565b5f819050610b1582610af4565b919050565b5f610b2482610b08565b9050919050565b610b3481610b1a565b82525050565b5f602082019050610b4d5f830184610b2b565b92915050565b7f4e487b71000000000000000000000000000000000000000000000000000000005f52601160045260245ffd5b5f610b8a826107b9565b9150610b95836107b9565b9250828201905080821115610bad57610bac610b53565b5b92915050565b5f610bbd826107b9565b91507fffffffffffffffffffffffffffffffffffffffffffffffffffffffffffffffff8203610bef57610bee610b53565b5b600182019050919050565b7f4e487b71000000000000000000000000000000000000000000000000000000005f52602260045260245ffd5b5f6002820490506001821680610c3e57607f821691505b602082108103610c5157610c50610bfa565b5b50919050565b5f819050815f5260205f209050919050565b5f6020601f8301049050919050565b5f82821b905092915050565b5f60088302610cb37fffffffffffffffffffffffffffffffffffffffffffffffffffffffffffffffff82610c78565b610cbd8683610c78565b95508019841693508086168417925050509392505050565b5f819050919050565b5f610cf8610cf3610cee846107b9565b610cd5565b6107b9565b9050919050565b5f819050919050565b610d1183610cde565b610d25610d1d82610cff565b848454610c84565b825550505050565b5f90565b610d39610d2d565b610d44818484610d08565b505050565b5b81811015610d6757610d5c5f82610d31565b600181019050610d4a565b5050565b601f821115610dac57610d7d81610c57565b610d8684610c69565b81016020851015610d95578190505b610da9610da185610c69565b830182610d49565b50505b505050565b5f82821c905092915050565b5f610dcc5f1984600802610db1565b1980831691505092915050565b5f610de48383610dbd565b9150826002028217905092915050565b610dfd82610883565b67ffffffffffffffff811115610e1657610e1561091b565b5b610e208254610c27565b610e2b828285610d6b565b5f60209050601f831160018114610e5c575f8415610e4a578287015190505b610e548582610dd9565b865550610ebb565b601f198416610e6a86610c57565b5f5b82811015610e9157848901518255600182019150602085019450602081019050610e6c565b86831015610eae5784890151610eaa601f891682610dbd565b8355505b6001600288020188555050505b505050505050565b5f610ed5610ed084610993565b610979565b905082815260208101848484011115610ef157610ef0610917565b5b610efc84828561089d565b509392505050565b5f82601f830112610f1857610f17610913565b5b8151610f28848260208601610ec3565b91505092915050565b5f60208284031215610f4657610f45610826565b5b5f82015167ffffffffffffffff811115610f6357610f6261082a565b5b610f6f84828501610f04565b9150509291505056fea2646970667358221220ccde7f0e75a00c5c958078287f1dae9fe77cd466524fe1bad750146c387e98a364736f6c634300081a0033",
					"opcodes": "PUSH1 0x80 PUSH1 0x40 MSTORE CALLVALUE DUP1 ISZERO PUSH1 0xE JUMPI PUSH0 DUP1 REVERT JUMPDEST POP PUSH2 0xFAE DUP1 PUSH2 0x1C PUSH0 CODECOPY PUSH0 RETURN INVALID PUSH1 0x80 PUSH1 0x40 MSTORE CALLVALUE DUP1 ISZERO PUSH2 0xF JUMPI PUSH0 DUP1 REVERT JUMPDEST POP PUSH1 0x4 CALLDATASIZE LT PUSH2 0x109 JUMPI PUSH0 CALLDATALOAD PUSH1 0xE0 SHR DUP1 PUSH4 0x8FDA356D GT PUSH2 0xA0 JUMPI DUP1 PUSH4 0xB6339418 GT PUSH2 0x6F JUMPI DUP1 PUSH4 0xB6339418 EQ PUSH2 0x282 JUMPI DUP1 PUSH4 0xBCA353BE EQ PUSH2 0x29E JUMPI DUP1 PUSH4 0xC19D93FB EQ PUSH2 0x2A8 JUMPI DUP1 PUSH4 0xCB6A33F8 EQ PUSH2 0x2C6 JUMPI DUP1 PUSH4 0xE0819C9A EQ PUSH2 0x2F6 JUMPI PUSH2 0x109 JUMP JUMPDEST DUP1 PUSH4 0x8FDA356D EQ PUSH2 0x20D JUMPI DUP1 PUSH4 0x9E7A13AD EQ PUSH2 0x217 JUMPI DUP1 PUSH4 0xA621D15E EQ PUSH2 0x248 JUMPI DUP1 PUSH4 0xA7E1A364 EQ PUSH2 0x266 JUMPI PUSH2 0x109 JUMP JUMPDEST DUP1 PUSH4 0x3A32B549 GT PUSH2 0xDC JUMPI DUP1 PUSH4 0x3A32B549 EQ PUSH2 0x197 JUMPI DUP1 PUSH4 0x6F760F41 EQ PUSH2 0x1B5 JUMPI DUP1 PUSH4 0x7B2F685D EQ PUSH2 0x1D1 JUMPI DUP1 PUSH4 0x8701F8CA EQ PUSH2 0x1EF JUMPI PUSH2 0x109 JUMP JUMPDEST DUP1 PUSH4 0xC8C38C9 EQ PUSH2 0x10D JUMPI DUP1 PUSH4 0xCD2636E EQ PUSH2 0x12B JUMPI DUP1 PUSH4 0x22F3E2D4 EQ PUSH2 0x149 JUMPI DUP1 PUSH4 0x29CD1D96 EQ PUSH2 0x167 JUMPI JUMPDEST PUSH0 DUP1 REVERT JUMPDEST PUSH2 0x115 PUSH2 0x314 JUMP JUMPDEST PUSH1 0x40 MLOAD PUSH2 0x122 SWAP2 SWAP1 PUSH2 0x7D1 JUMP JUMPDEST PUSH1 0x40 MLOAD DUP1 SWAP2 SUB SWAP1 RETURN JUMPDEST PUSH2 0x133 PUSH2 0x320 JUMP JUMPDEST PUSH1 0x40 MLOAD PUSH2 0x140 SWAP2 SWAP1 PUSH2 0x7D1 JUMP JUMPDEST PUSH1 0x40 MLOAD DUP1 SWAP2 SUB SWAP1 RETURN JUMPDEST PUSH2 0x151 PUSH2 0x35C JUMP JUMPDEST PUSH1 0x40 MLOAD PUSH2 0x15E SWAP2 SWAP1 PUSH2 0x804 JUMP JUMPDEST PUSH1 0x40 MLOAD DUP1 SWAP2 SUB SWAP1 RETURN JUMPDEST PUSH2 0x181 PUSH1 0x4 DUP1 CALLDATASIZE SUB DUP2 ADD SWAP1 PUSH2 0x17C SWAP2 SWAP1 PUSH2 0x858 JUMP JUMPDEST PUSH2 0x397 JUMP JUMPDEST PUSH1 0x40 MLOAD PUSH2 0x18E SWAP2 SWAP1 PUSH2 0x7D1 JUMP JUMPDEST PUSH1 0x40 MLOAD DUP1 SWAP2 SUB SWAP1 RETURN JUMPDEST PUSH2 0x19F PUSH2 0x3B7 JUMP JUMPDEST PUSH1 0x40 MLOAD PUSH2 0x1AC SWAP2 SWAP1 PUSH2 0x8F3 JUMP JUMPDEST PUSH1 0x40 MLOAD DUP1 SWAP2 SUB SWAP1 RETURN JUMPDEST PUSH2 0x1CF PUSH1 0x4 DUP1 CALLDATASIZE SUB DUP2 ADD SWAP1 PUSH2 0x1CA SWAP2 SWAP1 PUSH2 0xA3F JUMP JUMPDEST PUSH2 0x3F4 JUMP JUMPDEST STOP JUMPDEST PUSH2 0x1D9 PUSH2 0x48E JUMP JUMPDEST PUSH1 0x40 MLOAD PUSH2 0x1E6 SWAP2 SWAP1 PUSH2 0x7D1 JUMP JUMPDEST PUSH1 0x40 MLOAD DUP1 SWAP2 SUB SWAP1 RETURN JUMPDEST PUSH2 0x1F7 PUSH2 0x49A JUMP JUMPDEST PUSH1 0x40 MLOAD PUSH2 0x204 SWAP2 SWAP1 PUSH2 0x8F3 JUMP JUMPDEST PUSH1 0x40 MLOAD DUP1 SWAP2 SUB SWAP1 RETURN JUMPDEST PUSH2 0x215 PUSH2 0x4A9 JUMP JUMPDEST STOP JUMPDEST PUSH2 0x231 PUSH1 0x4 DUP1 CALLDATASIZE SUB DUP2 ADD SWAP1 PUSH2 0x22C SWAP2 SWAP1 PUSH2 0x858 JUMP JUMPDEST PUSH2 0x519 JUMP JUMPDEST PUSH1 0x40 MLOAD PUSH2 0x23F SWAP3 SWAP2 SWAP1 PUSH2 0xA99 JUMP JUMPDEST PUSH1 0x40 MLOAD DUP1 SWAP2 SUB SWAP1 RETURN JUMPDEST PUSH2 0x250 PUSH2 0x5CE JUMP JUMPDEST PUSH1 0x40 MLOAD PUSH2 0x25D SWAP2 SWAP1 PUSH2 0x7D1 JUMP JUMPDEST PUSH1 0x40 MLOAD DUP1 SWAP2 SUB SWAP1 RETURN JUMPDEST PUSH2 0x280 PUSH1 0x4 DUP1 CALLDATASIZE SUB DUP2 ADD SWAP1 PUSH2 0x27B SWAP2 SWAP1 PUSH2 0x858 JUMP JUMPDEST PUSH2 0x5D6 JUMP JUMPDEST STOP JUMPDEST PUSH2 0x29C PUSH1 0x4 DUP1 CALLDATASIZE SUB DUP2 ADD SWAP1 PUSH2 0x297 SWAP2 SWAP1 PUSH2 0x858 JUMP JUMPDEST PUSH2 0x636 JUMP JUMPDEST STOP JUMPDEST PUSH2 0x2A6 PUSH2 0x676 JUMP JUMPDEST STOP JUMPDEST PUSH2 0x2B0 PUSH2 0x6E7 JUMP JUMPDEST PUSH1 0x40 MLOAD PUSH2 0x2BD SWAP2 SWAP1 PUSH2 0xB3A JUMP JUMPDEST PUSH1 0x40 MLOAD DUP1 SWAP2 SUB SWAP1 RETURN JUMPDEST PUSH2 0x2E0 PUSH1 0x4 DUP1 CALLDATASIZE SUB DUP2 ADD SWAP1 PUSH2 0x2DB SWAP2 SWAP1 PUSH2 0x858 JUMP JUMPDEST PUSH2 0x6F9 JUMP JUMPDEST PUSH1 0x40 MLOAD PUSH2 0x2ED SWAP2 SWAP1 PUSH2 0x804 JUMP JUMPDEST PUSH1 0x40 MLOAD DUP1 SWAP2 SUB SWAP1 RETURN JUMPDEST PUSH2 0x2FE PUSH2 0x705 JUMP JUMPDEST PUSH1 0x40 MLOAD PUSH2 0x30B SWAP2 SWAP1 PUSH2 0x8F3 JUMP JUMPDEST PUSH1 0x40 MLOAD DUP1 SWAP2 SUB SWAP1 RETURN JUMPDEST PUSH0 PUSH1 0x2 DUP1 SLOAD SWAP1 POP SWAP1 POP SWAP1 JUMP JUMPDEST PUSH0 DUP1 PUSH0 SWAP1 POP PUSH0 PUSH1 0x1 SWAP1 POP JUMPDEST PUSH0 SLOAD DUP2 GT PUSH2 0x354 JUMPI DUP1 DUP3 PUSH2 0x33F SWAP2 SWAP1 PUSH2 0xB80 JUMP JUMPDEST SWAP2 POP DUP1 DUP1 PUSH2 0x34C SWAP1 PUSH2 0xBB3 JUMP JUMPDEST SWAP2 POP POP PUSH2 0x32B JUMP JUMPDEST POP DUP1 SWAP2 POP POP SWAP1 JUMP JUMPDEST PUSH0 DUP1 PUSH1 0x1 DUP2 GT ISZERO PUSH2 0x370 JUMPI PUSH2 0x36F PUSH2 0xAC7 JUMP JUMPDEST JUMPDEST PUSH1 0x3 PUSH0 SWAP1 SLOAD SWAP1 PUSH2 0x100 EXP SWAP1 DIV PUSH1 0xFF AND PUSH1 0x1 DUP2 GT ISZERO PUSH2 0x391 JUMPI PUSH2 0x390 PUSH2 0xAC7 JUMP JUMPDEST JUMPDEST EQ SWAP1 POP SWAP1 JUMP JUMPDEST PUSH1 0x1 DUP2 DUP2 SLOAD DUP2 LT PUSH2 0x3A6 JUMPI PUSH0 DUP1 REVERT JUMPDEST SWAP1 PUSH0 MSTORE PUSH1 0x20 PUSH0 KECCAK256 ADD PUSH0 SWAP2 POP SWAP1 POP SLOAD DUP2 JUMP JUMPDEST PUSH1 0x60 PUSH1 0x40 MLOAD DUP1 PUSH1 0x40 ADD PUSH1 0x40 MSTORE DUP1 PUSH1 0x1C DUP2 MSTORE PUSH1 0x20 ADD PUSH32 0x5468697320697320616E2065787465726E616C2066756E6374696F6E00000000 DUP2 MSTORE POP SWAP1 POP SWAP1 JUMP JUMPDEST PUSH1 0x2 PUSH1 0x40 MLOAD DUP1 PUSH1 0x40 ADD PUSH1 0x40 MSTORE DUP1 DUP5 DUP2 MSTORE PUSH1 0x20 ADD DUP4 DUP2 MSTORE POP SWAP1 DUP1 PUSH1 0x1 DUP2 SLOAD ADD DUP1 DUP3 SSTORE DUP1 SWAP2 POP POP PUSH1 0x1 SWAP1 SUB SWAP1 PUSH0 MSTORE PUSH1 0x20 PUSH0 KECCAK256 SWAP1 PUSH1 0x2 MUL ADD PUSH0 SWAP1 SWAP2 SWAP1 SWAP2 SWAP1 SWAP2 POP PUSH0 DUP3 ADD MLOAD DUP2 PUSH0 ADD SWAP1 DUP2 PUSH2 0x444 SWAP2 SWAP1 PUSH2 0xDF4 JUMP JUMPDEST POP PUSH1 0x20 DUP3 ADD MLOAD DUP2 PUSH1 0x1 ADD SSTORE POP POP PUSH32 0x38689EFCC6AFEE3CD9A9149881AC988A4BAF9420F51737C9D3D832FE2D5B539 DUP3 DUP3 PUSH1 0x40 MLOAD PUSH2 0x482 SWAP3 SWAP2 SWAP1 PUSH2 0xA99 JUMP JUMPDEST PUSH1 0x40 MLOAD DUP1 SWAP2 SUB SWAP1 LOG1 POP POP JUMP JUMPDEST PUSH0 PUSH1 0x1 DUP1 SLOAD SWAP1 POP SWAP1 POP SWAP1 JUMP JUMPDEST PUSH1 0x60 PUSH2 0x4A4 PUSH2 0x77C JUMP JUMPDEST SWAP1 POP SWAP1 JUMP JUMPDEST PUSH0 PUSH1 0x3 PUSH0 PUSH2 0x100 EXP DUP2 SLOAD DUP2 PUSH1 0xFF MUL NOT AND SWAP1 DUP4 PUSH1 0x1 DUP2 GT ISZERO PUSH2 0x4CD JUMPI PUSH2 0x4CC PUSH2 0xAC7 JUMP JUMPDEST JUMPDEST MUL OR SWAP1 SSTORE POP PUSH32 0xAB540C1B3DEFD38D975E65AA0E06EEEE132A55DD082BE87B73F505AB57BED48C PUSH1 0x3 PUSH0 SWAP1 SLOAD SWAP1 PUSH2 0x100 EXP SWAP1 DIV PUSH1 0xFF AND PUSH1 0x40 MLOAD PUSH2 0x50F SWAP2 SWAP1 PUSH2 0xB3A JUMP JUMPDEST PUSH1 0x40 MLOAD DUP1 SWAP2 SUB SWAP1 LOG1 JUMP JUMPDEST PUSH1 0x2 DUP2 DUP2 SLOAD DUP2 LT PUSH2 0x528 JUMPI PUSH0 DUP1 REVERT JUMPDEST SWAP1 PUSH0 MSTORE PUSH1 0x20 PUSH0 KECCAK256 SWAP1 PUSH1 0x2 MUL ADD PUSH0 SWAP2 POP SWAP1 POP DUP1 PUSH0 ADD DUP1 SLOAD PUSH2 0x547 SWAP1 PUSH2 0xC27 JUMP JUMPDEST DUP1 PUSH1 0x1F ADD PUSH1 0x20 DUP1 SWAP2 DIV MUL PUSH1 0x20 ADD PUSH1 0x40 MLOAD SWAP1 DUP2 ADD PUSH1 0x40 MSTORE DUP1 SWAP3 SWAP2 SWAP1 DUP2 DUP2 MSTORE PUSH1 0x20 ADD DUP3 DUP1 SLOAD PUSH2 0x573 SWAP1 PUSH2 0xC27 JUMP JUMPDEST DUP1 ISZERO PUSH2 0x5BE JUMPI DUP1 PUSH1 0x1F LT PUSH2 0x595 JUMPI PUSH2 0x100 DUP1 DUP4 SLOAD DIV MUL DUP4 MSTORE SWAP2 PUSH1 0x20 ADD SWAP2 PUSH2 0x5BE JUMP JUMPDEST DUP3 ADD SWAP2 SWAP1 PUSH0 MSTORE PUSH1 0x20 PUSH0 KECCAK256 SWAP1 JUMPDEST DUP2 SLOAD DUP2 MSTORE SWAP1 PUSH1 0x1 ADD SWAP1 PUSH1 0x20 ADD DUP1 DUP4 GT PUSH2 0x5A1 JUMPI DUP3 SWAP1 SUB PUSH1 0x1F AND DUP3 ADD SWAP2 JUMPDEST POP POP POP POP POP SWAP1 DUP1 PUSH1 0x1 ADD SLOAD SWAP1 POP DUP3 JUMP JUMPDEST PUSH0 DUP1 SLOAD SWAP1 POP SWAP1 JUMP JUMPDEST PUSH1 0x1 DUP2 SWAP1 DUP1 PUSH1 0x1 DUP2 SLOAD ADD DUP1 DUP3 SSTORE DUP1 SWAP2 POP POP PUSH1 0x1 SWAP1 SUB SWAP1 PUSH0 MSTORE PUSH1 0x20 PUSH0 KECCAK256 ADD PUSH0 SWAP1 SWAP2 SWAP1 SWAP2 SWAP1 SWAP2 POP SSTORE PUSH32 0x863998AB206170CA379AA4DC8A1B8EAF9944ABE3F6F7D4571B42DB890169A7F3 DUP2 PUSH1 0x40 MLOAD PUSH2 0x62B SWAP2 SWAP1 PUSH2 0x7D1 JUMP JUMPDEST PUSH1 0x40 MLOAD DUP1 SWAP2 SUB SWAP1 LOG1 POP JUMP JUMPDEST DUP1 PUSH0 DUP2 SWAP1 SSTORE POP PUSH32 0x3564FFB2FD8F93D7B0E9D1173FFDFF5EE9775D860BFE82EACA0D0DBE07C8B634 DUP2 PUSH1 0x40 MLOAD PUSH2 0x66B SWAP2 SWAP1 PUSH2 0x7D1 JUMP JUMPDEST PUSH1 0x40 MLOAD DUP1 SWAP2 SUB SWAP1 LOG1 POP JUMP JUMPDEST PUSH1 0x1 PUSH1 0x3 PUSH0 PUSH2 0x100 EXP DUP2 SLOAD DUP2 PUSH1 0xFF MUL NOT AND SWAP1 DUP4 PUSH1 0x1 DUP2 GT ISZERO PUSH2 0x69B JUMPI PUSH2 0x69A PUSH2 0xAC7 JUMP JUMPDEST JUMPDEST MUL OR SWAP1 SSTORE POP PUSH32 0xAB540C1B3DEFD38D975E65AA0E06EEEE132A55DD082BE87B73F505AB57BED48C PUSH1 0x3 PUSH0 SWAP1 SLOAD SWAP1 PUSH2 0x100 EXP SWAP1 DIV PUSH1 0xFF AND PUSH1 0x40 MLOAD PUSH2 0x6DD SWAP2 SWAP1 PUSH2 0xB3A JUMP JUMPDEST PUSH1 0x40 MLOAD DUP1 SWAP2 SUB SWAP1 LOG1 JUMP JUMPDEST PUSH1 0x3 PUSH0 SWAP1 SLOAD SWAP1 PUSH2 0x100 EXP SWAP1 DIV PUSH1 0xFF AND DUP2 JUMP JUMPDEST PUSH0 DUP2 PUSH0 SLOAD GT SWAP1 POP SWAP2 SWAP1 POP JUMP JUMPDEST PUSH1 0x60 ADDRESS PUSH20 0xFFFFFFFFFFFFFFFFFFFFFFFFFFFFFFFFFFFFFFFF AND PUSH4 0x3A32B549 PUSH1 0x40 MLOAD DUP2 PUSH4 0xFFFFFFFF AND PUSH1 0xE0 SHL DUP2 MSTORE PUSH1 0x4 ADD PUSH0 PUSH1 0x40 MLOAD DUP1 DUP4 SUB DUP2 DUP7 GAS STATICCALL ISZERO DUP1 ISZERO PUSH2 0x74F JUMPI RETURNDATASIZE PUSH0 DUP1 RETURNDATACOPY RETURNDATASIZE PUSH0 REVERT JUMPDEST POP POP POP POP PUSH1 0x40 MLOAD RETURNDATASIZE PUSH0 DUP3 RETURNDATACOPY RETURNDATASIZE PUSH1 0x1F NOT PUSH1 0x1F DUP3 ADD AND DUP3 ADD DUP1 PUSH1 0x40 MSTORE POP DUP2 ADD SWAP1 PUSH2 0x777 SWAP2 SWAP1 PUSH2 0xF31 JUMP JUMPDEST SWAP1 POP SWAP1 JUMP JUMPDEST PUSH1 0x60 PUSH1 0x40 MLOAD DUP1 PUSH1 0x40 ADD PUSH1 0x40 MSTORE DUP1 PUSH1 0x1C DUP2 MSTORE PUSH1 0x20 ADD PUSH32 0x5468697320697320616E20696E7465726E616C2066756E6374696F6E00000000 DUP2 MSTORE POP SWAP1 POP SWAP1 JUMP JUMPDEST PUSH0 DUP2 SWAP1 POP SWAP2 SWAP1 POP JUMP JUMPDEST PUSH2 0x7CB DUP2 PUSH2 0x7B9 JUMP JUMPDEST DUP3 MSTORE POP POP JUMP JUMPDEST PUSH0 PUSH1 0x20 DUP3 ADD SWAP1 POP PUSH2 0x7E4 PUSH0 DUP4 ADD DUP5 PUSH2 0x7C2 JUMP JUMPDEST SWAP3 SWAP2 POP POP JUMP JUMPDEST PUSH0 DUP2 ISZERO ISZERO SWAP1 POP SWAP2 SWAP1 POP JUMP JUMPDEST PUSH2 0x7FE DUP2 PUSH2 0x7EA JUMP JUMPDEST DUP3 MSTORE POP POP JUMP JUMPDEST PUSH0 PUSH1 0x20 DUP3 ADD SWAP1 POP PUSH2 0x817 PUSH0 DUP4 ADD DUP5 PUSH2 0x7F5 JUMP JUMPDEST SWAP3 SWAP2 POP POP JUMP JUMPDEST PUSH0 PUSH1 0x40 MLOAD SWAP1 POP SWAP1 JUMP JUMPDEST PUSH0 DUP1 REVERT JUMPDEST PUSH0 DUP1 REVERT JUMPDEST PUSH2 0x837 DUP2 PUSH2 0x7B9 JUMP JUMPDEST DUP2 EQ PUSH2 0x841 JUMPI PUSH0 DUP1 REVERT JUMPDEST POP JUMP JUMPDEST PUSH0 DUP2 CALLDATALOAD SWAP1 POP PUSH2 0x852 DUP2 PUSH2 0x82E JUMP JUMPDEST SWAP3 SWAP2 POP POP JUMP JUMPDEST PUSH0 PUSH1 0x20 DUP3 DUP5 SUB SLT ISZERO PUSH2 0x86D JUMPI PUSH2 0x86C PUSH2 0x826 JUMP JUMPDEST JUMPDEST PUSH0 PUSH2 0x87A DUP5 DUP3 DUP6 ADD PUSH2 0x844 JUMP JUMPDEST SWAP2 POP POP SWAP3 SWAP2 POP POP JUMP JUMPDEST PUSH0 DUP2 MLOAD SWAP1 POP SWAP2 SWAP1 POP JUMP JUMPDEST PUSH0 DUP3 DUP3 MSTORE PUSH1 0x20 DUP3 ADD SWAP1 POP SWAP3 SWAP2 POP POP JUMP JUMPDEST DUP3 DUP2 DUP4 MCOPY PUSH0 DUP4 DUP4 ADD MSTORE POP POP POP JUMP JUMPDEST PUSH0 PUSH1 0x1F NOT PUSH1 0x1F DUP4 ADD AND SWAP1 POP SWAP2 SWAP1 POP JUMP JUMPDEST PUSH0 PUSH2 0x8C5 DUP3 PUSH2 0x883 JUMP JUMPDEST PUSH2 0x8CF DUP2 DUP6 PUSH2 0x88D JUMP JUMPDEST SWAP4 POP PUSH2 0x8DF DUP2 DUP6 PUSH1 0x20 DUP7 ADD PUSH2 0x89D JUMP JUMPDEST PUSH2 0x8E8 DUP2 PUSH2 0x8AB JUMP JUMPDEST DUP5 ADD SWAP2 POP POP SWAP3 SWAP2 POP POP JUMP JUMPDEST PUSH0 PUSH1 0x20 DUP3 ADD SWAP1 POP DUP2 DUP2 SUB PUSH0 DUP4 ADD MSTORE PUSH2 0x90B DUP2 DUP5 PUSH2 0x8BB JUMP JUMPDEST SWAP1 POP SWAP3 SWAP2 POP POP JUMP JUMPDEST PUSH0 DUP1 REVERT JUMPDEST PUSH0 DUP1 REVERT JUMPDEST PUSH32 0x4E487B7100000000000000000000000000000000000000000000000000000000 PUSH0 MSTORE PUSH1 0x41 PUSH1 0x4 MSTORE PUSH1 0x24 PUSH0 REVERT JUMPDEST PUSH2 0x951 DUP3 PUSH2 0x8AB JUMP JUMPDEST DUP2 ADD DUP2 DUP2 LT PUSH8 0xFFFFFFFFFFFFFFFF DUP3 GT OR ISZERO PUSH2 0x970 JUMPI PUSH2 0x96F PUSH2 0x91B JUMP JUMPDEST JUMPDEST DUP1 PUSH1 0x40 MSTORE POP POP POP JUMP JUMPDEST PUSH0 PUSH2 0x982 PUSH2 0x81D JUMP JUMPDEST SWAP1 POP PUSH2 0x98E DUP3 DUP3 PUSH2 0x948 JUMP JUMPDEST SWAP2 SWAP1 POP JUMP JUMPDEST PUSH0 PUSH8 0xFFFFFFFFFFFFFFFF DUP3 GT ISZERO PUSH2 0x9AD JUMPI PUSH2 0x9AC PUSH2 0x91B JUMP JUMPDEST JUMPDEST PUSH2 0x9B6 DUP3 PUSH2 0x8AB JUMP JUMPDEST SWAP1 POP PUSH1 0x20 DUP2 ADD SWAP1 POP SWAP2 SWAP1 POP JUMP JUMPDEST DUP3 DUP2 DUP4 CALLDATACOPY PUSH0 DUP4 DUP4 ADD MSTORE POP POP POP JUMP JUMPDEST PUSH0 PUSH2 0x9E3 PUSH2 0x9DE DUP5 PUSH2 0x993 JUMP JUMPDEST PUSH2 0x979 JUMP JUMPDEST SWAP1 POP DUP3 DUP2 MSTORE PUSH1 0x20 DUP2 ADD DUP5 DUP5 DUP5 ADD GT ISZERO PUSH2 0x9FF JUMPI PUSH2 0x9FE PUSH2 0x917 JUMP JUMPDEST JUMPDEST PUSH2 0xA0A DUP5 DUP3 DUP6 PUSH2 0x9C3 JUMP JUMPDEST POP SWAP4 SWAP3 POP POP POP JUMP JUMPDEST PUSH0 DUP3 PUSH1 0x1F DUP4 ADD SLT PUSH2 0xA26 JUMPI PUSH2 0xA25 PUSH2 0x913 JUMP JUMPDEST JUMPDEST DUP2 CALLDATALOAD PUSH2 0xA36 DUP5 DUP3 PUSH1 0x20 DUP7 ADD PUSH2 0x9D1 JUMP JUMPDEST SWAP2 POP POP SWAP3 SWAP2 POP POP JUMP JUMPDEST PUSH0 DUP1 PUSH1 0x40 DUP4 DUP6 SUB SLT ISZERO PUSH2 0xA55 JUMPI PUSH2 0xA54 PUSH2 0x826 JUMP JUMPDEST JUMPDEST PUSH0 DUP4 ADD CALLDATALOAD PUSH8 0xFFFFFFFFFFFFFFFF DUP2 GT ISZERO PUSH2 0xA72 JUMPI PUSH2 0xA71 PUSH2 0x82A JUMP JUMPDEST JUMPDEST PUSH2 0xA7E DUP6 DUP3 DUP7 ADD PUSH2 0xA12 JUMP JUMPDEST SWAP3 POP POP PUSH1 0x20 PUSH2 0xA8F DUP6 DUP3 DUP7 ADD PUSH2 0x844 JUMP JUMPDEST SWAP2 POP POP SWAP3 POP SWAP3 SWAP1 POP JUMP JUMPDEST PUSH0 PUSH1 0x40 DUP3 ADD SWAP1 POP DUP2 DUP2 SUB PUSH0 DUP4 ADD MSTORE PUSH2 0xAB1 DUP2 DUP6 PUSH2 0x8BB JUMP JUMPDEST SWAP1 POP PUSH2 0xAC0 PUSH1 0x20 DUP4 ADD DUP5 PUSH2 0x7C2 JUMP JUMPDEST SWAP4 SWAP3 POP POP POP JUMP JUMPDEST PUSH32 0x4E487B7100000000000000000000000000000000000000000000000000000000 PUSH0 MSTORE PUSH1 0x21 PUSH1 0x4 MSTORE PUSH1 0x24 PUSH0 REVERT JUMPDEST PUSH1 0x2 DUP2 LT PUSH2 0xB05 JUMPI PUSH2 0xB04 PUSH2 0xAC7 JUMP JUMPDEST JUMPDEST POP JUMP JUMPDEST PUSH0 DUP2 SWAP1 POP PUSH2 0xB15 DUP3 PUSH2 0xAF4 JUMP JUMPDEST SWAP2 SWAP1 POP JUMP JUMPDEST PUSH0 PUSH2 0xB24 DUP3 PUSH2 0xB08 JUMP JUMPDEST SWAP1 POP SWAP2 SWAP1 POP JUMP JUMPDEST PUSH2 0xB34 DUP2 PUSH2 0xB1A JUMP JUMPDEST DUP3 MSTORE POP POP JUMP JUMPDEST PUSH0 PUSH1 0x20 DUP3 ADD SWAP1 POP PUSH2 0xB4D PUSH0 DUP4 ADD DUP5 PUSH2 0xB2B JUMP JUMPDEST SWAP3 SWAP2 POP POP JUMP JUMPDEST PUSH32 0x4E487B7100000000000000000000000000000000000000000000000000000000 PUSH0 MSTORE PUSH1 0x11 PUSH1 0x4 MSTORE PUSH1 0x24 PUSH0 REVERT JUMPDEST PUSH0 PUSH2 0xB8A DUP3 PUSH2 0x7B9 JUMP JUMPDEST SWAP2 POP PUSH2 0xB95 DUP4 PUSH2 0x7B9 JUMP JUMPDEST SWAP3 POP DUP3 DUP3 ADD SWAP1 POP DUP1 DUP3 GT ISZERO PUSH2 0xBAD JUMPI PUSH2 0xBAC PUSH2 0xB53 JUMP JUMPDEST JUMPDEST SWAP3 SWAP2 POP POP JUMP JUMPDEST PUSH0 PUSH2 0xBBD DUP3 PUSH2 0x7B9 JUMP JUMPDEST SWAP2 POP PUSH32 0xFFFFFFFFFFFFFFFFFFFFFFFFFFFFFFFFFFFFFFFFFFFFFFFFFFFFFFFFFFFFFFFF DUP3 SUB PUSH2 0xBEF JUMPI PUSH2 0xBEE PUSH2 0xB53 JUMP JUMPDEST JUMPDEST PUSH1 0x1 DUP3 ADD SWAP1 POP SWAP2 SWAP1 POP JUMP JUMPDEST PUSH32 0x4E487B7100000000000000000000000000000000000000000000000000000000 PUSH0 MSTORE PUSH1 0x22 PUSH1 0x4 MSTORE PUSH1 0x24 PUSH0 REVERT JUMPDEST PUSH0 PUSH1 0x2 DUP3 DIV SWAP1 POP PUSH1 0x1 DUP3 AND DUP1 PUSH2 0xC3E JUMPI PUSH1 0x7F DUP3 AND SWAP2 POP JUMPDEST PUSH1 0x20 DUP3 LT DUP2 SUB PUSH2 0xC51 JUMPI PUSH2 0xC50 PUSH2 0xBFA JUMP JUMPDEST JUMPDEST POP SWAP2 SWAP1 POP JUMP JUMPDEST PUSH0 DUP2 SWAP1 POP DUP2 PUSH0 MSTORE PUSH1 0x20 PUSH0 KECCAK256 SWAP1 POP SWAP2 SWAP1 POP JUMP JUMPDEST PUSH0 PUSH1 0x20 PUSH1 0x1F DUP4 ADD DIV SWAP1 POP SWAP2 SWAP1 POP JUMP JUMPDEST PUSH0 DUP3 DUP3 SHL SWAP1 POP SWAP3 SWAP2 POP POP JUMP JUMPDEST PUSH0 PUSH1 0x8 DUP4 MUL PUSH2 0xCB3 PUSH32 0xFFFFFFFFFFFFFFFFFFFFFFFFFFFFFFFFFFFFFFFFFFFFFFFFFFFFFFFFFFFFFFFF DUP3 PUSH2 0xC78 JUMP JUMPDEST PUSH2 0xCBD DUP7 DUP4 PUSH2 0xC78 JUMP JUMPDEST SWAP6 POP DUP1 NOT DUP5 AND SWAP4 POP DUP1 DUP7 AND DUP5 OR SWAP3 POP POP POP SWAP4 SWAP3 POP POP POP JUMP JUMPDEST PUSH0 DUP2 SWAP1 POP SWAP2 SWAP1 POP JUMP JUMPDEST PUSH0 PUSH2 0xCF8 PUSH2 0xCF3 PUSH2 0xCEE DUP5 PUSH2 0x7B9 JUMP JUMPDEST PUSH2 0xCD5 JUMP JUMPDEST PUSH2 0x7B9 JUMP JUMPDEST SWAP1 POP SWAP2 SWAP1 POP JUMP JUMPDEST PUSH0 DUP2 SWAP1 POP SWAP2 SWAP1 POP JUMP JUMPDEST PUSH2 0xD11 DUP4 PUSH2 0xCDE JUMP JUMPDEST PUSH2 0xD25 PUSH2 0xD1D DUP3 PUSH2 0xCFF JUMP JUMPDEST DUP5 DUP5 SLOAD PUSH2 0xC84 JUMP JUMPDEST DUP3 SSTORE POP POP POP POP JUMP JUMPDEST PUSH0 SWAP1 JUMP JUMPDEST PUSH2 0xD39 PUSH2 0xD2D JUMP JUMPDEST PUSH2 0xD44 DUP2 DUP5 DUP5 PUSH2 0xD08 JUMP JUMPDEST POP POP POP JUMP JUMPDEST JUMPDEST DUP2 DUP2 LT ISZERO PUSH2 0xD67 JUMPI PUSH2 0xD5C PUSH0 DUP3 PUSH2 0xD31 JUMP JUMPDEST PUSH1 0x1 DUP2 ADD SWAP1 POP PUSH2 0xD4A JUMP JUMPDEST POP POP JUMP JUMPDEST PUSH1 0x1F DUP3 GT ISZERO PUSH2 0xDAC JUMPI PUSH2 0xD7D DUP2 PUSH2 0xC57 JUMP JUMPDEST PUSH2 0xD86 DUP5 PUSH2 0xC69 JUMP JUMPDEST DUP2 ADD PUSH1 0x20 DUP6 LT ISZERO PUSH2 0xD95 JUMPI DUP2 SWAP1 POP JUMPDEST PUSH2 0xDA9 PUSH2 0xDA1 DUP6 PUSH2 0xC69 JUMP JUMPDEST DUP4 ADD DUP3 PUSH2 0xD49 JUMP JUMPDEST POP POP JUMPDEST POP POP POP JUMP JUMPDEST PUSH0 DUP3 DUP3 SHR SWAP1 POP SWAP3 SWAP2 POP POP JUMP JUMPDEST PUSH0 PUSH2 0xDCC PUSH0 NOT DUP5 PUSH1 0x8 MUL PUSH2 0xDB1 JUMP JUMPDEST NOT DUP1 DUP4 AND SWAP2 POP POP SWAP3 SWAP2 POP POP JUMP JUMPDEST PUSH0 PUSH2 0xDE4 DUP4 DUP4 PUSH2 0xDBD JUMP JUMPDEST SWAP2 POP DUP3 PUSH1 0x2 MUL DUP3 OR SWAP1 POP SWAP3 SWAP2 POP POP JUMP JUMPDEST PUSH2 0xDFD DUP3 PUSH2 0x883 JUMP JUMPDEST PUSH8 0xFFFFFFFFFFFFFFFF DUP2 GT ISZERO PUSH2 0xE16 JUMPI PUSH2 0xE15 PUSH2 0x91B JUMP JUMPDEST JUMPDEST PUSH2 0xE20 DUP3 SLOAD PUSH2 0xC27 JUMP JUMPDEST PUSH2 0xE2B DUP3 DUP3 DUP6 PUSH2 0xD6B JUMP JUMPDEST PUSH0 PUSH1 0x20 SWAP1 POP PUSH1 0x1F DUP4 GT PUSH1 0x1 DUP2 EQ PUSH2 0xE5C JUMPI PUSH0 DUP5 ISZERO PUSH2 0xE4A JUMPI DUP3 DUP8 ADD MLOAD SWAP1 POP JUMPDEST PUSH2 0xE54 DUP6 DUP3 PUSH2 0xDD9 JUMP JUMPDEST DUP7 SSTORE POP PUSH2 0xEBB JUMP JUMPDEST PUSH1 0x1F NOT DUP5 AND PUSH2 0xE6A DUP7 PUSH2 0xC57 JUMP JUMPDEST PUSH0 JUMPDEST DUP3 DUP2 LT ISZERO PUSH2 0xE91 JUMPI DUP5 DUP10 ADD MLOAD DUP3 SSTORE PUSH1 0x1 DUP3 ADD SWAP2 POP PUSH1 0x20 DUP6 ADD SWAP5 POP PUSH1 0x20 DUP2 ADD SWAP1 POP PUSH2 0xE6C JUMP JUMPDEST DUP7 DUP4 LT ISZERO PUSH2 0xEAE JUMPI DUP5 DUP10 ADD MLOAD PUSH2 0xEAA PUSH1 0x1F DUP10 AND DUP3 PUSH2 0xDBD JUMP JUMPDEST DUP4 SSTORE POP JUMPDEST PUSH1 0x1 PUSH1 0x2 DUP9 MUL ADD DUP9 SSTORE POP POP POP JUMPDEST POP POP POP POP POP POP JUMP JUMPDEST PUSH0 PUSH2 0xED5 PUSH2 0xED0 DUP5 PUSH2 0x993 JUMP JUMPDEST PUSH2 0x979 JUMP JUMPDEST SWAP1 POP DUP3 DUP2 MSTORE PUSH1 0x20 DUP2 ADD DUP5 DUP5 DUP5 ADD GT ISZERO PUSH2 0xEF1 JUMPI PUSH2 0xEF0 PUSH2 0x917 JUMP JUMPDEST JUMPDEST PUSH2 0xEFC DUP5 DUP3 DUP6 PUSH2 0x89D JUMP JUMPDEST POP SWAP4 SWAP3 POP POP POP JUMP JUMPDEST PUSH0 DUP3 PUSH1 0x1F DUP4 ADD SLT PUSH2 0xF18 JUMPI PUSH2 0xF17 PUSH2 0x913 JUMP JUMPDEST JUMPDEST DUP2 MLOAD PUSH2 0xF28 DUP5 DUP3 PUSH1 0x20 DUP7 ADD PUSH2 0xEC3 JUMP JUMPDEST SWAP2 POP POP SWAP3 SWAP2 POP POP JUMP JUMPDEST PUSH0 PUSH1 0x20 DUP3 DUP5 SUB SLT ISZERO PUSH2 0xF46 JUMPI PUSH2 0xF45 PUSH2 0x826 JUMP JUMPDEST JUMPDEST PUSH0 DUP3 ADD MLOAD PUSH8 0xFFFFFFFFFFFFFFFF DUP2 GT ISZERO PUSH2 0xF63 JUMPI PUSH2 0xF62 PUSH2 0x82A JUMP JUMPDEST JUMPDEST PUSH2 0xF6F DUP5 DUP3 DUP6 ADD PUSH2 0xF04 JUMP JUMPDEST SWAP2 POP POP SWAP3 SWAP2 POP POP JUMP INVALID LOG2 PUSH5 0x6970667358 0x22 SLT KECCAK256 0xCC 0xDE PUSH32 0xE75A00C5C958078287F1DAE9FE77CD466524FE1BAD750146C387E98A364736F PUSH13 0x634300081A0033000000000000 "
				},
				"gasEstimates": {
					"creation": {
						"codeDepositCost": "802800",
						"executionCost": "836",
						"totalCost": "803636"
					},
					"external": {
						"activateContract()": "27868",
						"addFavoriteNumber(uint256)": "infinite",
						"addPerson(string,uint256)": "infinite",
						"callInternalFunction()": "infinite",
						"deactivateContract()": "27890",
						"externalFunction()": "infinite",
						"favoriteNumbers(uint256)": "infinite",
						"getFavoriteNumber()": "2499",
						"getFavoriteNumbersLength()": "2507",
						"getPeopleLength()": "2464",
						"isActive()": "2599",
						"isGreaterThan(uint256)": "2792",
						"people(uint256)": "infinite",
						"state()": "2620",
						"storeNumber(uint256)": "infinite",
						"sumToFavoriteNumber()": "infinite",
						"testExternalFunction()": "infinite"
					},
					"internal": {
						"internalFunction()": "infinite"
					}
				},
				"methodIdentifiers": {
					"activateContract()": "8fda356d",
					"addFavoriteNumber(uint256)": "a7e1a364",
					"addPerson(string,uint256)": "6f760f41",
					"callInternalFunction()": "8701f8ca",
					"deactivateContract()": "bca353be",
					"externalFunction()": "3a32b549",
					"favoriteNumbers(uint256)": "29cd1d96",
					"getFavoriteNumber()": "a621d15e",
					"getFavoriteNumbersLength()": "7b2f685d",
					"getPeopleLength()": "0c8c38c9",
					"isActive()": "22f3e2d4",
					"isGreaterThan(uint256)": "cb6a33f8",
					"people(uint256)": "9e7a13ad",
					"state()": "c19d93fb",
					"storeNumber(uint256)": "b6339418",
					"sumToFavoriteNumber()": "0cd2636e",
					"testExternalFunction()": "e0819c9a"
				}
			},
			"storageLayout": {
				"storage": [
					{
						"astId": 3,
						"contract": "SimpleStorage.sol:SimpleStorage",
						"label": "favoriteNumber",
						"offset": 0,
						"slot": "0",
						"type": "t_uint256"
					},
					{
						"astId": 6,
						"contract": "SimpleStorage.sol:SimpleStorage",
						"label": "favoriteNumbers",
						"offset": 0,
						"slot": "1",
						"type": "t_array(t_uint256)dyn_storage"
					},
					{
						"astId": 15,
						"contract": "SimpleStorage.sol:SimpleStorage",
						"label": "people",
						"offset": 0,
						"slot": "2",
						"type": "t_array(t_struct(Person)11_storage)dyn_storage"
					},
					{
						"astId": 21,
						"contract": "SimpleStorage.sol:SimpleStorage",
						"label": "state",
						"offset": 0,
						"slot": "3",
						"type": "t_enum(ContractState)18"
					}
				],
				"types": {
					"t_array(t_struct(Person)11_storage)dyn_storage": {
						"base": "t_struct(Person)11_storage",
						"encoding": "dynamic_array",
						"label": "struct SimpleStorage.Person[]",
						"numberOfBytes": "32"
					},
					"t_array(t_uint256)dyn_storage": {
						"base": "t_uint256",
						"encoding": "dynamic_array",
						"label": "uint256[]",
						"numberOfBytes": "32"
					},
					"t_enum(ContractState)18": {
						"encoding": "inplace",
						"label": "enum SimpleStorage.ContractState",
						"numberOfBytes": "1"
					},
					"t_string_storage": {
						"encoding": "bytes",
						"label": "string",
						"numberOfBytes": "32"
					},
					"t_struct(Person)11_storage": {
						"encoding": "inplace",
						"label": "struct SimpleStorage.Person",
						"members": [
							{
								"astId": 8,
								"contract": "SimpleStorage.sol:SimpleStorage",
								"label": "name",
								"offset": 0,
								"slot": "0",
								"type": "t_string_storage"
							},
							{
								"astId": 10,
								"contract": "SimpleStorage.sol:SimpleStorage",
								"label": "favoriteNumber",
								"offset": 0,
								"slot": "1",
								"type": "t_uint256"
							}
						],
						"numberOfBytes": "64"
					},
					"t_uint256": {
						"encoding": "inplace",
						"label": "uint256",
						"numberOfBytes": "32"
					}
				}
			},
			"userdoc": {
				"kind": "user",
				"methods": {},
				"version": 1
			}
		}
	}
}